:100000000C9437020C947E020C947E020C947E02B7
:100010000C947E020C947E020C947E020C947E0260
:100020000C947E020C947E020C945B1C0C94971B27
:100030000C94F61F0C947E020C947E020C947E02AB
:100040000C947E020C947E020C947E020C947E0230
:100050000C947E020C9494130C947E020C947E02F9
:100060000C947E020C942D230C9405230C947E0298
:100070000C947E020C947E020C947E020C947E0200
:100080000C947E020C947E020C947E020C947E02F0
:100090000C947E020C947E020C947E020C947E02E0
:1000A0000C947E020C947E020C947E0228054D0571
:1000B000520557055C05610566056B0570057505FC
:1000C0007A058105840587058A058D0590059305C8
:1000D00096059B05FD05FD053506350688060F08C6
:1000E0000F080F08A406820793079307B219D919BE
:1000F0006F1BD9196F1B211A441A6F1B331B461B28
:10010000421D421D551D551D4B1D551D551D551D8F
:10011000421D421D501D551D551D501D0000000063
:10012000550056005F006000610057005C005D00F4
:100130005E00000059005A005B000057000062009A
:100140006300000000000000C35C0000000000002D
:10015000C45C000000000000C65C0000000000005D
:10016000C85C0000295D0000CA5C1050000101015C
:100170000101010101010202020202020202020364
:100180000303030303030304040404040404050534
:1001900005050506060606060707070707080808F7
:1001A00008090909090A0A0A0B0B0B0C0C0C0D0DA6
:1001B0000D0E0E0E0F0F0F1010111111121213133E
:1001C0001414151516161717181819191A1A1B1BB7
:1001D0001C1D1D1E1E1F2020212222232424252613
:1001E00026272829292A2B2C2D2D2E2F303132324B
:1001F000333435363738393A3B3C3D3E3F40414257
:10020000434445464748494A4C4D4E4F505153543C
:10021000555658595A5B5D5E5F61626465666869F0
:100220006B6C6D6F7072737577787A7B7D7E808270
:10023000838587888A8C8E8F91939596989A9C9EB9
:10024000A0A2A3A5A7A9ABADAFB1B3B5B7BABCBEC9
:10025000C0C2C4C6C9CBCDCFD1D4D6D8DBDDDFE296
:10026000E4E7E9EBEEF0F3F5F8FAFDFFFFAA7F55BE
:10027000401E0F0500047F3F1F643214643214785F
:100280003C1E1E140A052223252628292A2C2D2F40
:100290003032333536383A3B3D3E4042434547499C
:1002A0004A4C4E5051535557595A5C5E60626466D1
:1002B00068696B6D6F71737577797B7D7F818385DD
:1002C00087898A8C8E90929496989A9C9E9FA1A3DF
:1002D000A5A7A8AAACAEAFB1B3B4B6B8B9BBBCBE03
:1002E000BFC1C2C3C5C6C7C9CACBCCCDCED0D1D27F
:1002F000D2D3D4D5D6D7D7D8D9D9DADADBDBDBDC81
:10030000DCDCDCDCDDDDDDDDDCDCDCDCDCDBDBDB2C
:10031000DADAD9D9D8D7D7D6D5D4D3D2D2D1D0CE8C
:10032000CDCCCBCAC9C7C6C5C3C2C1BFBEBCBBB991
:10033000B8B6B4B3B1AFAEACAAA8A7A5A3A19F9E0F
:100340009C9A98969492908E8C8A89878583817FD7
:100350007D7B79777573716F6D6B696866646260B8
:100360005E5C5A5957555351504E4C4A4947454384
:1003700042403E3D3B3A3836353332302F2D2C2A21
:1003800029282625232205010980A10185031901B9
:100390002AB700150126B700950175108100C00528
:1003A0000C0901A101850419012AA002150126A04A
:1003B00002950175108100C005010906A10105071C
:1003C00019E029E7150025019508750181029501BD
:1003D000750881010507190029FF150026FF009502
:1003E0000675088100050819012905950575019113
:1003F00002950175039101C009023B00020100A0B2
:10040000FA090400000103010100092111010001A2
:100410002240000705810308000A090401000103C6
:1004200000000009211101000122320007058203AA
:1004300020000A1201100100000008616E616001D5
:1004400000010200010E035400490044004200492B
:10045000005400000012036E0075006C006C006216
:1004600000690074007300000004030904001124F3
:100470001FBECFEFDAE0DEBFCDBF04B603FE27C05C
:100480008091EA039091EB03A091EC03B091ED030E
:100490008730904BA740B04BD1F41092EA031092F2
:1004A000EB031092EC031092ED0314BE84B7877F28
:1004B00084BF0FB6F894A8958091600088618093FE
:1004C0006000109260000FBEE0E0F8E3099523E0C1
:1004D000A0EBB1E001C01D92AA3EB207E1F711E026
:1004E000A0E0B1E0E6E6F9E402C005900D92A03B81
:1004F000B107D9F70E948C100C94B1240C94000021
:100500008F929F92AF92BF92CF92DF92EF92FF9223
:100510000F931F93CF93DF93CDB7DEB72A970FB614
:10052000F894DEBF0FBECDBFFC01D0801181838166
:100530009481892B39F01F3F39F491E02FEFD212CB
:1005400003C003C091E001C090E090FDC8C57F01E9
:1005500085E0DE01169601900D928A95E1F7D701AC
:1005600012962C918E819F81222349F00E94EE20C9
:10057000082F682F8E819F810E94662103C00E94F0
:100580003B21082FE12FF0E0B5E00B9FE00DF11DBE
:100590001124EE0FFF1FEE0FFF1FED0DF11DEE0FEB
:1005A000FF1FE45EFE4F05911491F70182818111D6
:1005B00008C0B701C8010E947C0D882309F470C5EA
:1005C0003DC080911F018F3FA1F349E0C42E41E05F
:1005D000D42EA12CB12C9924939480911F01082E24
:1005E000000C990B8A159B0524F3D60116968C9165
:1005F00016978823E1F019968D919C911A97801790
:10060000910739F48091B2019091B301801791075D
:1006100071F0F6019786148703878189811103C0E1
:10062000C6010E949017C60106960E94B117FFEFFF
:10063000AF1ABF0A26E1C20ED11CCFCFC801975511
:100640008F3F910511F008F052C020911F01022E3A
:10065000000C330B2817390714F480931F01D701BE
:1006600012962C91129736E1389F5001399FB00CA9
:100670001124F501E75FFE4F6F01208B12969C91CC
:100680008681992351F1128701878F5F86830E94AB
:10069000EA1FD6011E969C938E931D978091A1020E
:1006A00017968C93179790919F028091A002892BA7
:1006B00018968C931897ED91FC911197C501815F65
:1006C0009E4F309729F054966D917C9155970995DE
:1006D0001093B3010093B2010AC0882341F08189CD
:1006E000882329F0C501815F9E4F0E94B117043F06
:1006F000FCE51F0759F190F4093D8CE51807E9F076
:100700000A3D9CE51907A1F1083DACE51A07B1F5D2
:1007100006E221EE41EE68ED7CE514C0063FBCE543
:100720001B0701F1C8F0073FFCE51F0739F507E299
:1007300025EE46EE67EF7CE505C007E225EE45EEC7
:1007400069ED7CE5C7010E94FC17AAC406E221EE10
:1007500040EE64EF7CE5F6CF07E225EE44EE65EF70
:100760007CE5F0CF06E221EE42EE66EF7CE5EACFD3
:1007700008E221E045EE6AED7CE5E4CFD701129670
:100780009C91992309F43FC11092B4010230BCE559
:100790001B0708F422C10631ECE51E0738F098016A
:1007A0002B5F3C452930310508F017C10E943920E4
:1007B0009093C9018093C8010031FCE51F0709F43B
:1007C000C3C008F041C008308CE5180709F49AC08E
:1007D000F0F40430ACE51A0709F487C068F402307D
:1007E000ECE51E0709F477C003301C4509F0E5C0AD
:1007F0008091C801826076C006302CE5120709F4AA
:100800006EC008F07BC08091C80188606BC00C305E
:100810009CE5190709F485C068F40A30BCE51B079C
:1008200009F474C008F079C00E943C1F8091C8018F
:10083000806858C00E30FCE51F0709F476C008F048
:100840007FC08091C8018BC00C3F8CE5180709F46C
:100850004FC018F50331ACE51A0709F47DC078F4F0
:100860000131ECE51E0709F473C002311C4509F0A3
:10087000A4C00E943C1F8091C8018F7733C005310E
:100880002CE5120709F472C008F486C00B3F1C4522
:1008900009F093C08091C9013EC00115ADE51A076A
:1008A00009F45FC058F40E3FECE51E0709F444C09C
:1008B00008F43FC08091C90182602DC002302DE54F
:1008C000120709F475C008F45DC003301D4509F036
:1008D00074C060E06EC08091C801816003C08091E7
:1008E000C80180618093C80168C08091C80111C0AF
:1008F0008091C90182608093C9015FC08091C80165
:100900008062F0CF8091C8018064ECCF8091C801F3
:1009100088608460E7CF8160EECF8091C8018E7FD0
:10092000E1CF8091C8018D7FDDCF8091C801877FA5
:10093000D9CF8091C90118C08091C9018D7FDBCFCB
:100940008091C8018F7ECECF8091C8018F7DCACFA4
:100950008091C8018F7BC6CF8091C801877F8B7F34
:10096000C1CF8091C9018D7F8E7FC5CF8091C80195
:1009700082FB222720F991E0922790FB82F990FBDD
:1009800083F9B0CF8091C901982F909591708E7F97
:10099000892B90FB81F9AFCF0E943C1F8091C80149
:1009A00087FB222720F991E0922790FB87F99ACFC5
:1009B00061E08EE090E00E94E6236091C801109112
:1009C000C90184E090E00E94E623612F81E290E07B
:1009D0000E94E6230E943C1F63C38091A00206315F
:1009E000ECE51E0749F58A7A91E009F490E09093CE
:1009F000B501882311F065E301C069E28EE492E05D
:100A00000E941F2016C006311C4509F0B1C080911C
:100A1000B501882309F461C385E3EEE4F2E024E53F
:100A200032E09281891301C0128231962E173F075E
:100A3000C1F70E94C12034C38272F801E35CFC4517
:100A4000E431F10508F07CC0EA5AFF4F0C948F2482
:100A50008091D90180FF1BC08E7F8093D901609166
:100A6000D9017091DA018091DB019091DC010E9443
:100A70001F091092DF01AFEFB0E7E2E0A150B040F4
:100A8000E040E1F700C000000E94C50809C3816092
:100A90008093D90161E0869550C04DE25BE066E34A
:100AA0007BE02CC046E35BE06DE27BE027C049EDD4
:100AB0005AE062EE7AE022C042EE5AE069ED7AE056
:100AC0001DC041EC5AE06DEC7AE018C04DEC5AE0E4
:100AD00061EC7AE013C049EA5AE065EB7AE00EC0B7
:100AE00045EB5AE069EA7AE009C041E359E062E483
:100AF00079E004C042E459E061E379E00E949C1887
:100B0000CFC261E081E019C065E082E011C068E019
:100B100086E00EC06EE089E00BC064E18FE008C0A3
:100B200067E185E105C061E088E107C062E289E133
:100B30000E948A18B5C261E083E20E94EB0AB0C24B
:100B40000115FCE51F0731F00F3D1C4589F40E949B
:100B50004A20A6C20E943C1F8FEF94E3ACE0815074
:100B60009040A040E1F700C000000E94701398C2BE
:100B7000D7010D911C91992349F0C8010E94EE20E4
:100B8000D82E682FC8010E94662104C0C8010E94A7
:100B90003B21D82EB8018D2D0E94570B8C01982E29
:100BA000F701C280A580A2943FE0A32280919D021C
:100BB000877099F0CC2089F0812F807F803421F0DC
:100BC00080E2800F883048F082E00E94E22180912C
:100BD0009D028770DD24D3948111D12CB12EB29463
:100BE0002FE0B2228B2D90E08C30910508F017C2D7
:100BF000FC01E659FF4F0C948F24812F807F1F70DA
:100C0000882311F01295107FCC20B9F0112309F43C
:100C1000F1C180E2800F883010F0911006C0809101
:100C2000A002182B1093A00205C080919F02182BE0
:100C300010939F020E94C120DDC1802F0E94471F98
:100C4000112309F4ECC1005E083010F0911004C0CB
:100C5000812F0E94BA2006C0109580919F02182310
:100C600010939F020E94C120DAC1812F807F1F70E4
:100C7000803211F01295107F992021F0F1E09F163B
:100C8000E1F02AC0CC2081F08091A102AA2051F08D
:100C900021E0A21207C0182B181709F4C0C1109345
:100CA000A102BDC1812B10C0AA2021F081E0A816AD
:100CB00009F4B5C10E94B42027C0CC2041F095E0D2
:100CC0009A1508F4ACC1812F0E946E1DA8C1A4E042
:100CD000AA1508F4A4C118C0CC2049F0AA2099F3A1
:100CE000F701858180FF86C18F708583ECCFAA20B4
:100CF00059F0093309F090C1FFEF27EE83E0F1507E
:100D000020408040E1F786C1812F0E94781D87C175
:100D1000812F86958695837019F0813059F07FC1B7
:100D2000CC2019F0C801937002C080E090E00E94CE
:100D30006E177DC1CC2019F0C801937002C080E00D
:100D400090E00E94581773C1812F837009F069C029
:100D5000C11069C1902F929596959770990F990F30
:100D6000802F8F70882E912CA12CB12C092E04C0BD
:100D7000880C991CAA1CBB1C0A94D2F704FF12C051
:100D80004FE050E060E070E004C0440F551F661F64
:100D9000771F9A95D2F7DB01CA0180959095A095AF
:100DA000B09503C080E090E0DC0116951695412FC8
:100DB0004370423019F1C8F40091A2021091A302CD
:100DC0002091A4023091A502413059F08829992937
:100DD000AA29BB29BC01CD0160237123822393235F
:100DE0000AC0802A912AA22AB32ABC01CD0168290F
:100DF00079298A299B290E941C2215C188299929B1
:100E0000AA29BB290091A2021091A3022091A40259
:100E10003091A502BC01CD0160277127822793275D
:100E2000EACFCC2019F0812F817001C086958823EC
:100E300009F4F9C0902F929596959770990F990F94
:100E4000802F8F70882E912CA12CB12C092E04C0DC
:100E5000880C991CAA1CBB1C0A94D2F704FF12C070
:100E60004FE050E060E070E004C0440F551F661F83
:100E7000771F9A95D2F7DB01CA0180959095A095CE
:100E8000B09503C080E090E0DC0116951695412FE7
:100E900043704230D9F068F50091C4011091C5014A
:100EA0002091C6013091C701413059F08829992914
:100EB000AA29BB29BC01CD0160237123822393237E
:100EC0001EC0802A912AA22AB32A13C088299929F0
:100ED000AA29BB290091C4011091C5012091C60126
:100EE0003091C701BC01CD0160277127822793276C
:100EF00006C0BC01CD01682979298A299B290E9455
:100F0000902191C01F70CC2039F0812F0E94FB21CD
:100F1000802F0E946E1D87C0802F0E94781D812F18
:100F20000E94BD2180C0802F92EF991629F199155A
:100F300038F0A0EF9A1659F0B1EF9B16C1F055C0EA
:100F4000E3EF9E1601F1F4EF9F16A1F14EC0CC2005
:100F500049F024E02A1508F462C0812F8F710E94A5
:100F60009C215DC085E08A1508F459C0F6CFCC20DD
:100F700029F0812F8F712CC0CC20D9F3812F8F7154
:100F80000E94BD214CC0CC2079F01F7181E090E01F
:100F9000A0E0B0E0BC01CD0104C0660F771F881F40
:100FA000991F1A95D2F703C060E070E0CB010E9450
:100FB000902135C0CC2079F01F71812F0E94FB2138
:100FC000A8E01A9FC0011124836080939D02812FA5
:100FD0000E94FB2124C081E00E94E221B1E0BA1509
:100FE000F0F482E00E94E2211AC0CC2039F0AA205D
:100FF00009F4BFCF802F0E94781F11C0AA2009F4E6
:10100000BDCF893349F4EFEFF7EE23E0E150F04034
:101010002040E1F700C00000802F0E94471F88EFAA
:101020008B0D843020F40E9484170E94F10CDD2087
:10103000B1F080919D0280FD12C0D70112961C92E2
:101040008595859585950E94FB21C7010E948002A8
:1010500080919D028595859585950E94BD2185E0AD
:10106000F701DE01119601900D928A95E1F78981D1
:101070009A810E943B21EA81F0E0B5E08B9FE00D70
:10108000F11D1124EE0FFF1FEE0FFF1F8981E80FE6
:10109000F11DEE0FFF1FE45EFE4F859194911FC07E
:1010A00080919D028770D9F0F70182818823B9F081
:1010B00082E02A960FB6F894DEBF0FBECDBFDF9157
:1010C000CF911F910F91FF90EF90DF90CF90BF9045
:1010D000AF909F908F900C94E22189E29ECC2A964B
:1010E0000FB6F894DEBF0FBECDBFDF91CF911F9139
:1010F0000F91FF90EF90DF90CF90BF90AF909F90B7
:101100008F9008959091C80192FF0DC0282F2871EB
:10111000283019F4877F846006C0282F247124307A
:1011200011F48B7F886093FF0DC0282F2871283120
:1011300019F4877E846106C0282F2471243111F4AC
:101140008B7E88612091C90120FF0DC0382F387136
:10115000383019F4877F816006C0382F3171313003
:1011600011F48E7F886021FF0DC0282F287128314F
:1011700019F4877E816106C0282F2171213111F475
:101180008E7E886194FD877E08958091D90180FFCD
:101190000AC0269A85B18F7B95B190642FB7F894D9
:1011A000E1EFF1E00BC0E1EFF1E011821082128279
:1011B000339632E0E930F307C1F7EBCF32E0E930A4
:1011C000F30789F0319148E095B9000000C037FF7E
:1011D00085B9330F000000C000C000C085B900C051
:1011E0004A9591F7EBCF2FBF8FE594E00197F1F788
:1011F00000C0000008959091D90190FF0CC0E1EF6C
:10120000F1E0818360834283339692E0E930F9070D
:10121000C1F70C94C50808958091D901282F26950F
:1012200030E02115310519F48170826005C02B3240
:10123000310524F0817084658093D9010895CF929F
:10124000DF92EF92FF926B017C010E940C09B701C3
:10125000A60188E090E0FF90EF90DF90CF900C9493
:10126000F8238091DD01882319F081508093DD01FE
:101270006091D9017091DA018091DB019091DC01DC
:101280000C941F098091DD01833018F48F5F8093E7
:10129000DD016091D9017091DA018091DB019091BB
:1012A000DC010C941F09E9EDF1E083E080831182F9
:1012B0008FEF828383831482608171818281938125
:1012C0000C941F09AF92BF92CF92DF92EF92FF92E0
:1012D0000F931F93CF93DF93E82EF62EE901E42FAF
:1012E000F0E0611106C0E459FE4FE4914E2F2E2F1D
:1012F00071C0062F10E0E459FE4F4491F42FC42E24
:10130000D12C26E0829FC00111242FEF30E0B901DB
:101310000E9467245BEA5603C001579F900D112479
:101320008E0D911D8E0D911D582F550F580FD901FF
:10133000A01BB10BAC9DC001AD9D900DBC9D900D4F
:101340001124E92FF59ED0011124AB2FBB27790181
:10135000EA1AFB0AEC9CD001ED9CB00DFC9CB00D90
:1013600011245901A51AB108A09E7001A19EF00C8C
:10137000B09EF00C1124EF2CFF242E193F092C9D58
:1013800080012D9D100D3C9D100D1124212F6230E8
:10139000710591F048F461157105E1F06130710556
:1013A000B9F4242F4B2F16C06430710569F040F05A
:1013B0006630710579F00CC0242F492FE12F0AC047
:1013C000492FEF2F2B2F06C0292FE42F412F02C0CA
:1013D000292FEB2F49832883EA83DF91CF911F9137
:1013E0000F91FF90EF90DF90CF90BF90AF90089556
:1013F000CF93DF9300D01F92CDB7DEB79091D90184
:1014000090FF0AC09E012F5F3F4F0E9462094B81EF
:1014100069818A810E94FB080F900F900F90DF91E5
:10142000CF9108957F928F929F92AF92BF92CF9269
:10143000DF92EF92FF920F931F93CF93DF9300D031
:101440001F92CDB7DEB7182FD62E042FC22E909143
:10145000D90190FF6DC0E92FE695AE2FB0E0A65CF4
:10146000BE4F8C918093DE019E7F923061F49E018D
:101470002F5F3F4F812F0E9462094B8169818A81D2
:101480000E94FB0843C0823019F40091DC013EC089
:10149000863019F41091DA0139C08930D9F38931D5
:1014A000A9F5E9512E2F2170722EE695F0E0E4594E
:1014B000FD4F8590949031EFA32E31E0B32EE12CB7
:1014C000F12C99248E9CC0018F9C900D9E9C900DB8
:1014D000112423E0969587952A95E1F7711002C0B3
:1014E000810F03C0212F281B822F9501402F6D2DC6
:1014F0000E9462098FEFE81AF80A23E0A20EB11CDD
:1015000088E0E816F104F1F60E94C5081093DA01AC
:10151000D092DB010093DC01CC2051F06091D90125
:101520007091DA018091DB019091DC010E941F092A
:101530000F900F900F90DF91CF911F910F91FF901F
:10154000EF90DF90CF90BF90AF909F908F907F9063
:101550000895E9EDF1E0438121E1421B08F440E008
:1015600021E0628181810C94120AE9EDF1E043816E
:1015700021E1420F08F44FEF21E0628181810C9458
:10158000120AE9EDF1E0628121E1621B08F460E0FA
:1015900021E0438181810C94120AE9EDF1E062813E
:1015A00021E1620F08F46FEF21E0438181810C9407
:1015B000120AE9EDF1E0818121E0438162818850E6
:1015C0000C94120AE9EDF1E0818121E0438162810E
:1015D000885F0C94120A9091D90190FF3DC09170E0
:1015E000811102C0926006C08B3210F0946502C077
:1015F000880F982B9093D901662351F06091D901FF
:101600007091DA018091DB019091DC010E941F0949
:101610006091D901669570E04BE050E080E291E086
:101620000E94A424892B19F01092DF0109C081E0E7
:101630008093DF010E94EA1F9093D4018093D3012D
:1016400081E08093D60120E04091DC016091DB01D4
:101650008091DA010C94120A08958091D90186953F
:10166000815009F48AE261E00C94EB0A8091D9017F
:1016700086958F5F8B3208F081E061E00C94EB0A75
:10168000F894E82FE295EF70F0E031A1282F2F7049
:1016900081E090E001C0880F2A95EAF7982F909595
:1016A000932391A392A1892B82A378940895CF9339
:1016B000DF93E72FF0E025E0829FE00DF11D11247C
:1016C000EE0FFF1FEE0FFF1FE60FF11DEE0FFF1FC6
:1016D000E45EFE4FC591D491CE01C238D10569F1C7
:1016E000B0F4C133D10509F475C048F4C932D1054D
:1016F00009F469C0CA32D10509F473C085C0C53385
:10170000D10509F459C0C933D105B9F07DC0C33E34
:10171000D10571F138F4C03ED105B1F0C23ED1051A
:1017200011F172C0C63ED105B9F1C73ED105C9F16C
:10173000C43ED10509F068C024C02091C80120FD35
:101740005DC021FD5BC060C02091C80120FD50C07C
:101750002091C90120FF42C18091C80184FD3CC194
:1017600083EE90E03BC12091C80122FF37C1F4CF46
:101770008091C80182FD3FC08091C90180FD3EC0BB
:10178000EBCF2091C90121FF29C18091C80184FDBF
:1017900023C187EE90E022C12091C80123FF1EC122
:1017A000F4CF8091C80183FD2CC08091C90181FFD5
:1017B000ECCF84EE90E012C12091C80125FF0EC14C
:1017C00089E290E00BC12091C80125FF07C185E3A4
:1017D00090E004C12091C80126FF00C18AE290E098
:1017E000FDC02091C80126FFF9C081E390E0F6C05A
:1017F00089E390E0F3C082EE90E0F0C080EE90E0EC
:10180000EDC086EE90E0EAC0C11552E5D50708F0BC
:101810006BC0C11521E5D20728F09C2F8827816F66
:10182000906ADCC0C83ED10570F5C03ED10508F015
:10183000D5C0C83AD105B8F4C53AD10550F08C2FBF
:10184000855AC82FD0E0C258DE4F888190E090645E
:10185000C5C0C130D10509F4C1C008F4BDC024978A
:1018600008F4BAC0BBC0CF3BD10508F0B5C08C2F7F
:10187000885AC82FD0E0CC0FDD1FCF57DE4F8881AC
:1018800099819464ABC0C11540E5D407F0F0CE0156
:10189000F4E096958795FA95E1F7282F23703C2F71
:1018A000337081E090E002C0880F991F3A95E2F70B
:1018B0009C68922B2C2F2F702695269540E2249F12
:1018C00090011124822B932B89C0C11550E4D507B8
:1018D00020F0CE019F70906A81C09E013A9521153B
:1018E0003F4108F47BC078C0C11556E5D50708F024
:1018F0003FC0C11585E5D80748F08C2F0E948208AB
:101900008F7190E0982F8827906268C0C11594E588
:10191000D90728F09C2F8827846F906A5FC09E01AA
:10192000237033279C2F96959695C115D34580F447
:1019300041E050E002C0440F551F2A95E2F780E2D3
:10194000989F90011124CA01822B932B9C6846C05A
:1019500041E050E002C0440F551F2A95E2F780E2B3
:10196000989F90011124CA01822B932B9A6836C04C
:10197000C1155AE5D507B0F4C11589E5D80718F1A6
:101980008C2F8F700E9482089E0194E036952795D7
:101990009A95E1F72F7030E0322F22273069A901A4
:1019A000482B0FC0CE01905681159042A8F48D2F80
:1019B0008F710E9482089E01332730628F71A901C6
:1019C000582BCA010BC0C11598E5D90728F09C2FE8
:1019D0008827806F906A02C080E090E0DF91CF910D
:1019E000089580FF02C0809801C0809A8898089569
:1019F0009C013A9521153F4138F5DC01AA27B270C8
:101A0000AC01442754709C012227387094FF0FC00A
:101A100090FF02C080E101C080E0AB2B09F0806242
:101A2000452B09F08064232B69F080680BC0892F57
:101A30008170AB2B09F08260452B09F08460232B69
:101A400009F08860FB0109940895CF92DF92EF922C
:101A5000FF926B017C01AA27BB270097A105B10566
:101A600011F020E103C0D701C60120E0492F5A2F11
:101A70006B2F7727411551056105710519F0285F16
:101A8000DB01CA01AC01BD01F4E07695679557957D
:101A90004795FA95D1F7411551056105710519F082
:101AA0002C5FDB01CA01AC01BD01E2E076956795D0
:101AB00057954795EA95D1F741155105610571058F
:101AC00019F02E5FDB01CA01B695A795979587950A
:101AD000892B8A2B8B2B09F02F5F83E5213019F49A
:101AE0000E94471F02C00E94781FC701B601FF90E5
:101AF000EF90DF90CF900895EF92FF920F931F9396
:101B0000CF93DF93EC018B0180912B01882321F08F
:101B1000C932DD4579F148C0CE0101978E3F91056C
:101B200020F0CF3E8FEFD80798F3F801228189E6A5
:101B30008093B901C093BA018D2F99278093BB017F
:101B40002093BC0130E027593F4F820F931F8C0F29
:101B5000911D8093BD0199EBE92E91E0F92EF701DB
:101B600081917F010E94C322FEEBEF16F1E0FF0698
:101B7000B1F7CECFF80182818823B1F080988898A0
:101B80008091D9018E7F8093D9011092DF01FFEF00
:101B900020E782E0F15020408040E1F700C00000E3
:101BA0000E94C5080E94701381E0DF91CF911F91C0
:101BB0000F91FF90EF9008956F927F928F929F9276
:101BC000AF92BF92CF92DF92EF92FF920F931F934B
:101BD000CF93DF9300D000D000D0CDB7DEB725E69D
:101BE000C22E21E0D22E00E010E0F12C8824839454
:101BF000912C44ECA42E41E0B42E3601D6018C91F8
:101C0000F894E82FE295EF70F0E021A18F70A40125
:101C100002C0440F551F8A95E2F7CA01922F982BF4
:101C200091A392A18095892382A3789400C0C401D6
:101C3000002E01C0880F0A94EAF7682F582F50959C
:101C4000EFEBF1E029E631E0E12C7081D9014D9113
:101C50009D01842F82958F7090E0DC0190968C918D
:101C600090E04F7002C0959587954A95E2F780FD08
:101C700003C0872F862B02C0872F8523781719F082
:101C80008083EE24E3943196AE16BF06F1F6BFEFE3
:101C9000CB1ADB0AF30180810E94400B033011054F
:101CA00019F0F0EAFA95F1F7FE280F5F1F4F0430A4
:101CB000110509F0A2CFFF2049F081E08093B8011F
:101CC0000E94EA1F9093B7018093B6018091B801FA
:101CD0008823F1F08091B6019091B7010E94BA1368
:101CE0000697B0F08091BF018093CE018091C00132
:101CF0008093CF018091C1018093D0018091C20176
:101D00008093D1018091C3018093D2011092B801D8
:101D100080911F018F3F59F1E12C96E1B92E1DC032
:101D2000BC9CF001BD9CF00D1124E75FFE4F828842
:101D300093888114910419F488EC882E912CBC9C12
:101D40008001BD9C100D1124075F1E4FD80116960F
:101D50008C911697811111C0E394CE2CD12C8091D7
:101D60001F01082E000C990B8C159D05CCF6809157
:101D70002B01882309F46AC02DC01D968D919C917A
:101D80001E970E94BA138816990630F7F8018189C8
:101D9000811103C0C8010E949017BC9CC001BD9C6A
:101DA000900D1124815F9E4F0E94B117D5CF0091F5
:101DB000BE0110E00E94DC22F801E754FE4F808350
:101DC0008091BE0181110BC09091B9019936D1F17A
:101DD0001092BE010E94F0228111E9CF37C08430F9
:101DE00089F58091B901893699F72091BC0130912C
:101DF000BB01822F90E0830F911D3091BA01830FB8
:101E0000911D87599F4F9091BD019813E1CF80910B
:101E1000BA019091BB018F3EFFEF9F0758F031E070
:101E2000211101C030E03B83BE016F5F7F4F0E94F4
:101E30007C0DCECF222319F00E94781FC9CF0E94BB
:101E4000471FC6CF8F5F8093BE01C4CF8F2D2696CC
:101E50000FB6F894DEBF0FBECDBFDF91CF911F91BB
:101E60000F91FF90EF90DF90CF90BF90AF909F9039
:101E70008F907F906F900895089580913902089512
:101E8000CF93DF9300D01F92CDB7DEB7909144027D
:101E9000943019F589837B836A8382E08093E9001B
:101EA0008FEF9091E800815095FD06C095ED9A95D1
:101EB000F1F700008111F5CF8091E80085FF0DC09A
:101EC00040E050E063E070E0CE0101960E94A2186D
:101ED0008091E8008E778093E8000F900F900F902C
:101EE000DF91CF910895BC0184E00C94400FBC01B8
:101EF00083E00C94400FCF93DF9321E02093E9001F
:101F00002FEF3091E800215035FD06C035ED3A95B0
:101F1000F1F700002111F5CF2091E80025FF14C052
:101F2000EC0140E050E068E070E00E94A21880916F
:101F3000E8008E778093E80088E0FE01AAE3B2E033
:101F400001900D928A95E1F7DF91CF91089520914C
:101F5000E4003091E50095E64091EC00842F81701B
:101F600040FF23C08091E80080FD1DC080914402A5
:101F7000882399F0853099F08091EB0085FD11C0A0
:101F80004091E4005091E5002417350729F3915062
:101F900011F09A01E1CF84E0089582E0089583E092
:101FA000089581E0089580E008954091E80042FF9F
:101FB000DDCF08958091460287FF11C08091E8002F
:101FC00082FD05C0809144028111F8CF11C080913B
:101FD000E8008B770BC080914402882349F0809100
:101FE000E80080FFF8CF8091E8008E778093E800CA
:101FF0000895982F973068F59093E900981739F075
:102000007091EC002091ED005091F00003C0242F5E
:10201000762F50E021FD02C09F5FECCF3091EB00A6
:102020003E7F3093EB003091ED003D7F3093ED002B
:102030003091EB0031603093EB007093EC00209313
:10204000ED005093F0002091EE0027FDE5CF80E0F9
:1020500008958F708093E90081E0089520914C02EB
:1020600030914D022617370748F06115710539F494
:102070002091E8002E772093E80001C0B901FC010F
:1020800020E06115710579F1809144028823F1F116
:102090008530F1F18091E80083FD3CC08091E8003B
:1020A00082FD2EC08091E80080FFEBCF2091F300ED
:1020B0008091F20090E0922B6115710551F088300B
:1020C000910538F421912093F10061507109019636
:1020D000F3CF21E0089709F020E08091E8008E77A7
:1020E0008093E800CECF2111CFCF0AC08091440267
:1020F000882361F0853061F08091E80083FD0AC09B
:102100008091E80082FFF2CF80E0089582E0089598
:1021100083E0089581E00895CF93DF93CDB7DEB7D4
:102120002A970FB6F894DEBF0FBECDBF84B7877F66
:1021300084BF0FB6F894A895809160008861809361
:102140006000109260000FBE90E080E80FB6F89437
:1021500080936100909361000FBE85B7806885BF52
:1021600085B7806885BF88EE9FE19093B101809329
:10217000B0010E94DB1B0E94FA1B8091E200846088
:102180008093E2007894809144028823A1F010911A
:10219000E9001F709091EC00892F817090FD80E81C
:1021A000182B1092E9008091E80083FD0E94CE1860
:1021B0001F701093E90082E084BD93E095BD9AEF13
:1021C00097BD80936E0084EF0E94400B85EF0E94C4
:1021D000400B86EF0E94400B87EF0E94400B81E38B
:1021E0000E94400B86EC0E94400B87E90E94400B46
:1021F00086E60E94400B84E90E94400BEFEBF1E081
:1022000084EC91E0AEECB1E011921D928E179F0725
:10221000D9F780E090E00E94E0238B3E9E4F11F0C2
:102220000E944A2060E078E582E090E00E949C22D3
:102230008091D80080618093D80085E38A95F1F77A
:1022400000008091D900817080932B0183E50E946A
:10225000781F80E090E00E94E0238B3E9E4F11F0BB
:102260000E944A2082E090E00E94D2238093E801FD
:102270000E9439209093C9018093C80183E090E0C7
:102280000E94D223682F70E080E090E00E941C2220
:102290006091C4017091C5018091C6019091C70100
:1022A0000E94250D8091CA01811136C080E090E026
:1022B0000E94E0238B3E9E4F21F00E944A200E9404
:1022C000530988E090E00E94DA236093D90170936B
:1022D000DA018093DB019093DC016E7F71F40E9440
:1022E000530988E090E00E94DA236093D90170934B
:1022F000DA018093DB019093DC010E940C091092BB
:10230000DF018091D90180FF04C060E086950E94C2
:10231000EB0A81E08093CA0122982A9A23982B9A8B
:1023200083B182FB882780F91B9902C090E001C02D
:1023300092E0892B8093E2018CE291E09093CC01B2
:102340008093CB01A8E1CA2ED12CB0E46B2E13ED03
:10235000A12E11E0B12E00E1702E80914402853053
:1023600009F044C012E180914402853009F038C080
:1023700080914402843021F180E00E94F10C10929F
:10238000CD010FB6F894A895C09260000FBE609280
:10239000600083B7817F846083BF83B7816083BF20
:1023A0007894889583B78E7F83BF0FB6F894A895ED
:1023B00080916000886180936000109260000FBE81
:1023C00080914302882309F4CECF0E94DC0DEEEC0D
:1023D000F1E0819181116EC1AE16BF06D1F7C3CF76
:1023E0000E943C1F0E9484170E94F10C0E94DC0D89
:1023F000882359F08FB7F8944091E3015091E4019C
:102400006091E5017091E6018FBFE9EEF1E0AEEC7D
:10241000B1E000E010E0302F2D919191922721F151
:1024200080E099249394492F4921D1F089833A83FC
:10243000292181E009F480E08B830E94EA1F8160FA
:10244000782F9D838C8349815A816B818D810E9475
:10245000BA16F801E751FE4F80819826908219C084
:102460008F5F990C8430F9F60F5F1F4F053011050F
:1024700091F68FEF8E838F8318860E94EA1F81600A
:10248000782F9A8789874E815F8168858A850E9427
:10249000BA168091DF01882309F4A5C08091DE017E
:1024A000E091D901E695E81BE093D501823059F41B
:1024B000F0E0EE57FD4FE4910E2F10E0F6EA8F2E7C
:1024C000F6E19F2E6BC0863059F4F0E0E158FD4FE5
:1024D000E4910E2F10E0E6E98E2EE6E19E2E5EC01E
:1024E000893061F4E695F0E0E458FD4FE4910E2F59
:1024F00010E07CE2872E76E1972E50C08F3061F499
:10250000E695F0E0E758FD4FE4910E2F10E068ECFF
:10251000862E65E1962E42C0853159F4F0E0EA58E6
:10252000FD4FE4910E2F10E05AE7852E55E1952ED0
:1025300035C08831F9F0833249F4E4E7F2E00591DF
:10254000149146E5842E46E1942E28C08432C9F0C9
:102550008532F1F48E2F63E00E945B24E92FF0E0D6
:10256000EF58FD4FE4910E2F10E036E1832E34E159
:10257000932E14C008E210E021EF822E24E1922E67
:102580000DC004EF11E097EB892E94E1992E06C05F
:1025900000ED17E089EC882E83E1982E8091D6011A
:1025A000882361F01092D6010E94EA1F9093D40113
:1025B0008093D3011092D8011092D7010E94EA1F94
:1025C000E091D301F091D4018E1B9F0B8F3F9F4769
:1025D00050F40E0F1F1F1093D4010093D30183ED0D
:1025E00091E0F40109958091E201E82FEE0FEE0FE2
:1025F000E093E20183B182FBEE24E0F8F12C1B9919
:1026000003C080E090E002C082E090E08E299F2924
:102610008E2B8093E2018F70E82FF0E0E259FE4F9D
:1026200090818091E101890F8093E101843064F011
:102630008091E0018F5F8093E00160E070E08AEAC2
:102640000E94D11F21E001C020E08091E1018D3F77
:102650005CF48091E00181508093E00160E070E0E3
:1026600089EA0E94D11F21E08091E101082E000C2F
:10267000990B64E070E00E947B248093E1012223A7
:1026800059F08FB7F8944091E3015091E4016091C3
:10269000E5017091E6018FBF0E9484179091E701D8
:1026A000891709F45ACE0E9484178093E7010E948B
:1026B000F10C53CE79BC19BD09B400FEFDCF809159
:1026C000D8008F7D8093D8008091E0008260809355
:1026D000E0008091E00081FDFCCF0E943C1F43CED2
:1026E00081E08093E00080E28093D8001092C900DE
:1026F0008FE19EE40197F1F700C0000087E090EBC6
:10270000DC018093EA039093EB03A093EC03B09376
:10271000ED039CE088E10FB6F894A89580936000E3
:102720000FBE90936000FFCF78941F920F920FB668
:102730000F9211248F939F93AF93BF938091E301E6
:102740009091E401A091E501B091E6010196A11DEF
:10275000B11D8093E3019093E401A093E501B09350
:10276000E601BF91AF919F918F910F900FBE0F9097
:102770001F9018959C014FB7F8948091E3019091B8
:10278000E401A091E501B091E6014FBF821B930BDC
:1027900008950895CF93DF93FC0180818130B9F4CF
:1027A000FB01C081D1818C2F0E94471FCE01805E2A
:1027B0009109089710F0209719F468E77DE102C0AD
:1027C00069E57DE1CE01DF91CF910C94F80CDF91AA
:1027D000CF910895CF93DF93DC018C918130B9F4D0
:1027E000FB01C081D181CE01805E9109089710F074
:1027F000209719F46EE67DE102C064E67DE1CE012A
:102800000E94F80C8C2FDF91CF910C94781F8230AE
:1028100051F4DB011396ED91FC91149712968C9173
:10282000DF91CF910994DF91CF9108959F92AF925C
:10283000BF92CF92DF92EF92FF920F931F93CF93AD
:10284000DF93FC01A280948081E08483E6E8F2E0DB
:10285000B490E5E0F3E0E491C9E0D2E0F1EFEF2ECF
:10286000F1E0FF2ECC24CA94D12CEB190E2F10E0EE
:1028700022E02A1530F08091DA0188838091DB0113
:102880008983911003C01B821A8255C08B818823D3
:10289000F9F081508B832FEF829FC00111246C814E
:1028A00070E00E946724FB01FF27EA57FD4F8491E7
:1028B000E82FEB192FEFE29FC0011124B8010E940D
:1028C00067248091DC01689FB00111247A8333C0B2
:1028D0000E94C2232091DC012695215830E0A901F5
:1028E000440F551F322F2227240F351F232F332744
:1028F0008217930704F582E08A1588F40E94C223A8
:10290000B6010E947B2488830E94C2232091DB01B0
:102910002695622F70E00E947B24280F29831A825B
:102920008091DC01843120F0893C18F088EC01C0F2
:1029300084E18C838B8397014A81698188810E941D
:102940006209259623E0E20EF11C82E0C133D8072C
:1029500009F08ECFDF91CF911F910F91FF90EF90F3
:10296000DF90CF90BF90AF909F900C94C508EF92EE
:10297000FF920F931F93CF93DF938C01C1EFD1E0B0
:10298000E12CF12CF8018481F4E0EF16F1041CF441
:10299000882339F002C0811104C09E014091DC01FE
:1029A00002C09E0140E06091DB018091DA010E944B
:1029B00062098FEFE81AF80A239698E0E916F10405
:1029C00009F70E94C508F801848190E001968170A2
:1029D00099278483DF91CF911F910F91FF90EF9002
:1029E00008958F929F92AF92BF92CF92DF92EF9213
:1029F000FF920F931F93CF93DF93EC014C81042F31
:102A000010E09801D8010E944C249B01AC010E9467
:102A100039246B017C01E0E2F0E0E01BF10BA5E55D
:102A2000B0E09B01AC010E9439244B015C019F0185
:102A3000DF010E9495249B01AC010E9444249B016C
:102A4000AC012C0D3D1D4E1D5F1DC501B4010E9442
:102A50005423822FF22E99E2921728F093E0299FB7
:102A6000900111240DC025E530E0281B3109C90172
:102A7000880F991F280F391F37FF02C02F5F3F4F64
:102A800035952795122F109591EFC92E91E0D92EEB
:102A900000E085E5E82EEF1801FD02C08E2D01C093
:102AA0008F2D9601412F6091DB010E9462090F5F1B
:102AB00083E0C80ED11C083079F70E94C5088C81CC
:102AC000811102C091E003C0803219F49FEF90930E
:102AD000380190913801890F8C83DF91CF911F913C
:102AE0000F91FF90EF90DF90CF90BF90AF909F90AD
:102AF0008F9008950F931F93CF93DF93C1EFD1E091
:102B0000FE01118210821282339682E0E930F807CA
:102B1000C1F700E010E08091EF01082E000C990B46
:102B20000817190794F080913701082E000C990BB3
:102B30008017910754F09E014091DC016091DB0108
:102B40008091DA010E94620903C0198218821A82F8
:102B50000F5F1F4F239608301105E9F60E94C50844
:102B6000809136019091EF01980F9093EF012091A1
:102B70003701280F20933701121614F497301CF0F8
:102B8000819580933601DF91CF911F910F91089528
:102B9000CF92DF92EF92FF920F931F93CF93DF9329
:102BA000FC01828180FF03C0DD24DA9402C0DD24B1
:102BB000D394C1EFD1E000E010E0198218821A82AC
:102BC00094E0E92EF12CC12C8091EE018C0D89301E
:102BD00014F0877002C087FD885F082E000C990BE7
:102BE0000817190791F48091DC018E9DA0018F9D3B
:102BF000500D112455954795559547959E01609127
:102C0000DB018091DA010E946209CD0CF1E0EF1A3C
:102C1000F108D1F60F5F1F4F23960830110569F6B2
:102C20000E94C5088091EE0191E0D91206C0811181
:102C300002C087E006C0815004C090E00196877012
:102C400099278093EE01DF91CF911F910F91FF9013
:102C5000EF90DF90CF900895EF92FF921F93CF9364
:102C6000DF93EC0181EFE82E81E0F82E10E08C81FB
:102C700097014091DC016091DB01810F0E946209A4
:102C8000115E83E0E80EF11C183F89F70E94C50829
:102C90009A818C8190FF02C08F5F01C081508C832C
:102CA000DF91CF911F91FF90EF9008950F931F93A5
:102CB000CF93DF9300D01F92CDB7DEB78C01809108
:102CC000F00181110AC09E012F5F3F4F4FEF6FEF60
:102CD0000E9462098A818093F001F8018481813029
:102CE00051F028F0823061F44091F0010AC08091E7
:102CF000F00140E007C06091F00140E080E003C0D7
:102D000040E080E060E00E94FB08F801848190E0F0
:102D1000019663E070E00E947B2484830F900F9003
:102D20000F90DF91CF911F910F910895CF93DF9373
:102D3000EC01E9EDF1E0438162818C810E94F809A8
:102D40008C818F5F8C83DF91CF910895CF93DF9338
:102D5000EC01EC81F0E0EA57FD4F4491E9EDF1E040
:102D6000628181810E94F8098C818F5F8C83DF9161
:102D7000CF9108951F93CF93DF93CDB7DEB76797B9
:102D80000FB6F894DEBF0FBECDBF342F4B8B252F6F
:102D90005C8B6D8B7E8B8F8B4E895F89611110925E
:102DA0009F0286E0FE013D96DF01982F1D929A95C5
:102DB000E9F73D872E876F87598B488BDE01179681
:102DC00001900D928A95E1F7CE0107960E947F1D32
:102DD00081113EC086E0FE013796DE01119601901A
:102DE0000D928A95E1F7FF81E8856A857B856115FB
:102DF000710531F0EF3F31F481E0FF3F19F403C07A
:102E000081E001C080E080FD23C020915C0230E0C1
:102E1000C90101968770992740918D0250E084176F
:102E2000950779F1F983EA837D836C8396E0929F1D
:102E3000D001939FB00D1124A35ABD4FFE013196CE
:102E400001900D929A95E1F780935C020E942622F0
:102E500016E080918D0290915C028917F9F0189F1D
:102E6000C0011124835A9D4F0E947F1D8823B1F019
:102E700080918D0290E001968770992780938D0252
:102E8000E8CF0E943C1F10925C0210928D02E6E592
:102E9000F2E086E0DF011D928A95E9F767960FB6AA
:102EA000F894DEBF0FBECDBFDF91CF911F91089583
:102EB00020913502309136022817390771F090932E
:102EC000360280933502E091CB01F091CC0130972E
:102ED00021F00084F185E02D0994089520913302BA
:102EE000309134022817390771F09093340280939F
:102EF0003302E091CB01F091CC01309721F00680B4
:102F0000F781E02D09940895E091CB01F091CC0177
:102F1000309721F00190F081E02D099480E0089530
:102F2000CF93DF93EC0181E0898B9091A0028F8198
:102F3000892B8093A00290919F028885892B809392
:102F40009F020E94C120EA81FB81CE010696309744
:102F500029F06C897D89DF91CF910994DF91CF9120
:102F60000895EF92FF920F931F93CF93DF93FC018D
:102F7000228521113AC0EC01E380F480F7E5FF1AC5
:102F800026E12E9DC0012F9D900D1124DC01A75F2D
:102F9000BE4F1496ED91FC911597815F9E4F30972F
:102FA00029F054966D917C915597099586E18E9DF7
:102FB00080018F9D100D1124075F1E4FF80187813E
:102FC0000E94BA20F8018085809590919F02892304
:102FD00080939F020E94C120188219861B861E8240
:102FE0001D821092B3011092B201DF91CF911F9117
:102FF0000F91FF90EF9008950F931F93CF93DF935E
:10300000C42FD22FFC0182818823C9F04093B401E0
:103010000E94EA1F909332028093310280E28C0F6B
:10302000883008F072C0C77081E001C0880FCA956F
:10303000EAF7DF91CF911F910F910C946E1D809153
:10304000B40148133DC080913102909132020E9438
:10305000BA13883C9105A0F510E21D0FCD17E9F0D9
:1030600080E28C0F883040F4C77081E001C0880F87
:10307000CA95EAF70E94781D183090F581E09D2FDF
:10308000977001C0880F9A95EAF70E946E1D093368
:1030900069F560E570E089E32CC0093319F460E557
:1030A00070E002C060E070E0802F0E94D11F1830F5
:1030B00060F5D77081E001C0880FDA95EAF70AC0A1
:1030C00080E28C0F883008F5C77081E001C0880F5E
:1030D000CA95EAF7DF91CF911F910F910C94781D5B
:1030E000093351F460E570E089E309C060E070E005
:1030F000802F0E94D11FDDCF60E070E0802FDF9134
:10310000CF911F910F910C94D11FDF91CF911F91FF
:103110000F9108959091D90190FF04C0969598174A
:1031200040F003C0811105C090E0961710F40C9494
:10313000360B61E00C94EB0A882311F0FA0101C010
:10314000FB010994EF92FF920F931F93CF93DF93AC
:103150007C018B010E94A70F811119C0E7010115A5
:103160001105A1F08091E80085FD0AC08091E8007A
:103170008E778093E8000E94A70F882381F307C011
:1031800089918093F10001501109E9CF80E0DF912E
:10319000CF911F910F91FF90EF9008951F93CF93C0
:1031A000DF93CDB7DEB7AA970FB6F894DEBF0FBE98
:1031B000CDBFE6E4F2E08091F100819322E0EE34AD
:1031C000F207C9F780914702833009F460C030F4F8
:1031D000813071F0823009F49AC0B1C08A3009F4AC
:1031E00086C08B3009F46BC0893009F0A8C020C0BC
:1031F00080914602813A09F0A2C08091E800877F61
:103200008093E80080914A0290914B02892B21F42F
:1032100068E08AE392E003C060E080E090E070E064
:103220000E942E108091E8008B778093E80087C081
:1032300080914602813209F082C080914A029091C9
:103240004B02029708F07BC08091E800877F809353
:10325000E8008091E80082FD05C080914402811160
:10326000F8CF6DC02091F3008091F20090E0922B96
:10327000029729F48091F1008B7F813021F48091B5
:10328000F100809339028091E8008B7754C08091DF
:103290004602813A09F053C080914A0290914B0254
:1032A000892B09F04CC08091E800877F8093E8006B
:1032B0008091E80080FFFCCF8091390137C0809178
:1032C00046028132E1F580914A0290914B02892BAE
:1032D000B1F58091E800877F8093E8000E94DA0FC3
:1032E00080914802809339010E943C1F28C0809140
:1032F0004602813221F58091E800877F8093E800C3
:103300000E94DA0F809149028093380218C08091A0
:103310004602813AA1F48091E800877F8093E8001B
:103320008091E80080FFFCCF809138028093F1000B
:103330008091E8008E778093E8000E94DA0F8091F8
:10334000E80083FFCCC18091460290914702492F4B
:1033500050E04A30510508F0C2C1FA01EA58FF4F67
:103360000C948F24803821F0823809F0B8C108C04D
:103370008091420290914302992389F082600FC0AC
:1033800080914A028F70873008F0A9C18093E900CC
:103390008091EB0085FB882780F91092E9009091DD
:1033A000E800977F9093E8008093F1001092F1007D
:1033B00065C1282F2D7F09F092C1882319F0823032
:1033C00061F08DC180914802813009F088C193304D
:1033D00009F080E0809343022EC080914802811161
:1033E0002AC080914A028F702FEF280F263008F0F4
:1033F00076C18093E9002091EB0020FF1CC0933040
:1034000021F48091EB00806214C09091EB009061F8
:103410009093EB0021E030E0A90102C0440F551F5A
:103420008A95E2F74093EA001092EA008091EB005F
:1034300088608093EB001092E9008091E800877F1C
:1034400020C181114CC1109148021F778091E30087
:103450008078812B8093E3008091E800877F8093C0
:10346000E8000E94DA0F8091E80080FFFCCF809195
:10347000E30080688093E300111102C082E001C084
:1034800083E0809344022BC18058823008F027C12A
:1034900080914802909149028C3D53E0950779F55F
:1034A00083E08A838AE289834FB7F894DE0113961A
:1034B00020E03EE051E2E32FF0E050935700E4912A
:1034C00020FF03C0E295EF703F5FEF708E2F90E01A
:1034D000EA3010F0C79601C0C0968D939D932F5F80
:1034E000243149F74FBF8091E800877F8093E8003F
:1034F0006AE270E0CE0101960E942E10AEC04091AB
:103500004A0250914B02292F332723303105A9F06D
:1035100068F42130310509F4F1C02230310509F099
:10352000DEC08BE390E0E8EFF3E044C021323105E8
:1035300021F12232310571F1D2C0992781309105F4
:10354000A1F058F0029709F0CAC0E5E4F4E0E49174
:103550008E2F90E0E5E4F4E02AC0E9E6F4E0E4919F
:103560008E2F90E0E9E6F4E022C0E5E5F4E0E49196
:103570008E2F90E0E5E5F4E01AC04115510509F4FD
:10358000C2C04130510509F0AAC089E090E0E3E2F1
:10359000F4E010C04115510509F4BAC0413051059D
:1035A00009F09DC082E390E0E6E8F3E003C00097F5
:1035B00009F495C02091E800277F2093E80020912E
:1035C0004C0230914D028217930708F49C0140E0B1
:1035D0002115310589F180914402882309F43DC009
:1035E0008530D9F18091E80083FD37C08091E800F3
:1035F00082FD2FC08091E80080FFEACF4091F30068
:103600008091F20090E0942B2115310559F088301B
:10361000910540F444914093F100319621503109D5
:103620000196F2CF41E0089709F040E08091E80070
:103630008E778093E800CCCF4111CDCF0AC0809126
:103640004402882351F0853041F08091E80083FDE9
:1036500004C08091E80082FFF2CF8091E8008B7770
:103660008093E8003CC08038D1F58091E800877FE6
:103670008093E800809145028093F1008091E800FA
:103680008E778093E8000E94DA0F29C0811127C04D
:1036900080914802909149029927029704F5809100
:1036A000E800877F8093E80010914802109345025C
:1036B0000E94DA0F111106C08091E30087FD02C05D
:1036C00081E001C084E08093440242E061EC81E04B
:1036D0000E94F90F42E261EC82E00E94F90F8091B2
:1036E000E80083FF1AC08091E800877F8093E8009C
:1036F0008091EB0080628093EB000FC082E190E04C
:10370000E3E3F4E057CF89E090E0EAE0F4E052CF61
:1037100080E490E0E8EBF3E04DCFAA960FB6F89482
:10372000DEBF0FBECDBFDF91CF911F9108951F92D5
:103730000F920FB60F9211242F933F934F935F93E5
:103740006F937F938F939F93AF93BF93CF93DF93A9
:10375000EF93FF93C091E900CF708091EC00D82FD8
:10376000D17080FDD0E81092E9008091F000877F51
:103770008093F00078940E94CE181092E900809116
:10378000F00088608093F000CD2BCF70C093E900EB
:10379000FF91EF91DF91CF91BF91AF919F918F9169
:1037A0007F916F915F914F913F912F910F900FBE3D
:1037B0000F901F901895E8EDF0E080818E7F808358
:1037C0001092E2001092DA001092E100A0EEB0E058
:1037D0008C9181608C9380818F77808319BCA7ED59
:1037E000B0E08C918E7F8C9380818F7E808310924D
:1037F00037020895CF92DF92EF92FF920F931F93BB
:10380000CF93DF93C8EDD0E088818F7E8883E7ED8A
:10381000F0E080818160808384E082BF81E08093DA
:10382000370288818E7F888302EE10E0F8011082D3
:103830001092DA0081EEC82ED12CF6011082888118
:103840008F77888388818068888388818F7D88834B
:1038500019BC109244021092450210924302109239
:10386000420290EEE92EF12CF70180818B7F80835C
:1038700088818160888342E060E080E00E94F90FE7
:10388000F60180818E7F8083F80180818160808352
:10389000808188608083F70180818E7F808388812A
:1038A00080618883DF91CF911F910F91FF90EF90FE
:1038B000DF90CF9008951F920F920FB60F921124B0
:1038C0002F933F934F935F936F937F938F939F9328
:1038D000AF93BF93EF93FF938091E10082FF09C004
:1038E0008091E20082FF05C08091E1008B7F809390
:1038F000E1008091DA0080FF2AC08091D80080FF2B
:1039000026C08091DA008E7F8093DA008091D90002
:1039100080FF18C080E189BD82E189BD09B400FE45
:10392000FDCF81E0809344028091370281110FC066
:103930000E94DB1B0E94FA1B8091E200846080934E
:10394000E20005C019BC1092440210923702809127
:10395000E10080FF17C08091E20080FF13C08091DA
:10396000E2008E7F8093E2008091E200806180938C
:10397000E2008091D80080628093D80019BC85E075
:10398000809344028091E10084FF2EC08091E20088
:1039900084FF2AC080E189BD82E189BD09B400FEAF
:1039A000FDCF8091D8008F7D8093D8008091E10079
:1039B0008F7E8093E1008091E2008F7E8093E20011
:1039C0008091E20081608093E2008091450288232B
:1039D00011F084E007C08091E30087FD02C081E020
:1039E00001C083E0809344028091E10083FF27C0FF
:1039F0008091E20083FF23C08091E100877F809364
:103A0000E10082E080934402109245028091E1003F
:103A10008E7F8093E1008091E2008E7F8093E200B0
:103A20008091E20080618093E20042E060E080E00B
:103A30000E94F90F8091F00088608093F000FF9160
:103A4000EF91BF91AF919F918F917F916F915F9116
:103A50004F913F912F910F900FBE0F901F9018958F
:103A60000E943021292F2F70E92FE295EF704E2F01
:103A700050E0FA013297EE30F105B8F4E058FF4F0C
:103A80000C948F24803F99F018F4883E70F40FC096
:103A9000843F59F40CC0883E50F0813F31F407C098
:103AA000822F869586958695089580E0089581E019
:103AB0000895882341F0809590919F0289238093F7
:103AC0009F020C94C1200895882339F090919F02A1
:103AD000892B80939F020C94C1200895882339F08C
:103AE0009091A002892B8093A0020C94C12008958C
:103AF000882321F00E94BA200C94C12008959F923F
:103B0000AF92BF92CF92DF92EF92FF920F931F93EB
:103B1000CF93DF93CDB7DEB761970FB6F894DEBFD2
:103B20000FBECDBF8C0185E0F801DE011D9601902E
:103B30000D928A95E1F7F80190818181E2803091C0
:103B40005602609157024091590250915A02411514
:103B5000510531F06F3F31F421E03F3F19F403C0CC
:103B600021E001C020E0F22FF1709F2E20FD23C143
:103B7000F801C380D48026E5A22E22E0B22EF09078
:103B80005802F601E41BF50BFF2009F4CEC020918A
:103B90005B02E83CF10508F099C0422F407F09F034
:103BA00051C0681311C039130FC0FE2CE1100CC0B6
:103BB0002F70206120935B02C5010E9480028091DA
:103BC0005B02F801858337C1CD2831F08F3F31F496
:103BD00021E09F3F19F403C021E001C020E020FD57
:103BE00003C021E02E2502C020E030E0F22FF1706A
:103BF000FF2E20FF1DC020918D0240915C0256E0F7
:103C0000241709F4F6C030E0529FF001539FF00DE5
:103C10001124E35AFD4F6181861306C0608196131B
:103C200003C06281E61204C02F5F3F4F2770E8CFC8
:103C3000FE2CEE2009F4FFC080915B02816080932E
:103C40005B0250C0681307C0391305C0E11003C000
:103C5000F80125838DC09D878E878D859E850E9466
:103C6000301D882369F1EE2059F120915B02822FEB
:103C700082958F7090E0029774F080915602909137
:103C8000570298878F831986DB86CA862C87CE01D8
:103C900007960E94800286E0F801A6E5B2E0019056
:103CA0000D928A95E1F70E9430220DC06817E1F06D
:103CB0009D878E878D859E850E94301D81111EC037
:103CC000C8010E948002FF24F394B5C0422F407FB8
:103CD00069F786E592E00E94800286E0F501119284
:103CE0008A95E9F7F12CA7C03913E2CFE110E0CFB4
:103CF000F8012583C8010E94800257C0EE2001F31D
:103D000020915B02822F82958F7090E002971CF2C7
:103D100080915602909157029A8389831B82DD829B
:103D2000CC822E83CE010196B4CFE83CF105E8F5B4
:103D3000FE2CEE2029F2681327C0391325C02091EC
:103D40005B0220FD18C0822F82958F70482F50E0B3
:103D50004115510581F0F80125834F30510541F09F
:103D60008F5F982F9295907F822F8F70892B8583FC
:103D7000C8010E94800286E0F801A6E5B2E0019049
:103D80000D928A95E1F757C09D878E878D859E8518
:103D90000E94301D81117FCF80915B0281608093F2
:103DA0005B02C8010E94800246C086E0F5011192C4
:103DB0008A95E9F740C0EE2009F482CF9D878E876F
:103DC0008D859E850E94301DF82E882309F478CFBA
:103DD00086E0F801A6E5B2E001900D928A95E1F740
:103DE00080915602909157020E9430210E94302209
:103DF00022C09D878E878D859E850E943021292F28
:103E000022952F70223028F49F7039F0811105C05F
:103E10000BC0243028F49F7049F4805E883020F075
:103E2000C8010E9480029F2CF92C05C0F8019581E1
:103E3000907F99F7F9CF8F2D61960FB6F894DEBF7A
:103E40000FBECDBFDF91CF911F910F91FF90EF90EB
:103E5000DF90CF90BF90AF909F90089580E090E06A
:103E60000E946E1780E090E00E94581710929F0207
:103E700010929E020C94C1201092A00286E0E0E510
:103E8000F2E0DF011D928A95E9F70C942E1F88233A
:103E900071F19CEF980F913A60F4EEE4F2E09281B8
:103EA000891301C01282319692E0E435F907B9F71F
:103EB0000DC090E2980F983058F4982F977081E0D9
:103EC00001C0880F9A95EAF70E94BA200C94C1208D
:103ED0009BE5980F933020F480E090E00C946E17EF
:103EE000885A873120F480E090E00C9458170895A8
:103EF000CF93882309F453C09CEF980F913AF8F4BC
:103F0000C82FE0E5F2E086E592E02191C21721F0AA
:103F10008E179F07D1F70DC0EEE4F2E08281C8133F
:103F200001C01282319642E0E435F407B9F70E94ED
:103F3000C1206C2F8EE492E00E941F2013C090E2FB
:103F4000980F983090F4877021E030E0A90102C00A
:103F5000440F551F8A95E2F7CA019091A002892B60
:103F60008093A002CF910C94C120EBE5E80FE330E1
:103F700040F4F0E0E258FE4F808190E0CF910C9445
:103F80006E17885A873158F4E82FF0E0EE0FFF1FC4
:103F9000EF57FE4F80819181CF910C945817CF91AC
:103FA00008951F93CF93DF93182FEB010E94781F82
:103FB000209741F08FE99FE00197F1F700C00000E2
:103FC0002197F6CF812FDF91CF911F910C94471F3E
:103FD00080E008952FB7F8948091E3019091E40177
:103FE000A091E501B091E6012FBF08951F920F92B5
:103FF0000FB60F9211248F939F93AF93BF9380912D
:10400000CD01811113C08091E3019091E401A09151
:10401000E501B091E6014196A11DB11D8093E30138
:104020009093E401A093E501B093E601BF91AF91B5
:104030009F918F910F900FBE0F901F9018959C012C
:10404000FC0132969FEF80E04191461789F09F3F37
:1040500019F4411101C0982F8F5F8630A9F79F3F57
:1040600039F0F901E90FF11D97FDFA956283089582
:104070000895CF9384E090E00E94D223C82F81E27C
:1040800090E00E94D2232C2F30E0A901582BCA01C6
:10409000CF9108956BEE7EEF80E090E00E940424C3
:1040A00060E082E090E00E94E62360E083E090E040
:1040B0000E94E6231092A2021092A3021092A40280
:1040C0001092A50260E084E090E00E94E62360E0A8
:1040D00081E290E00E94E62360E085E090E00E94AB
:1040E000E62360E086E090E00E94E6236FEF87E041
:1040F00090E00E94E62340E050E0BA0188E090E0C2
:104100000E94F82360E08DE090E00E94E62340E00A
:1041100050E0BA0188E190E00E94F82360E087E176
:1041200090E00E94E62340E050E0BA018CE190E08C
:104130000E94F82360E080E290E00E94E62340E0E5
:1041400050E0BA0188E190E00E94F82340E050E09E
:10415000BA018FE090E00E94F82340E050E0BA01FD
:1041600083E190E00C94F8238091A10281111092D8
:10417000A102089580959091A00289238093A002C6
:1041800008959091A00280919F02892B20919E0218
:10419000982F922B90934E028091A102882389F050
:1041A000892B80934E02E0E5F2E097E080E09150A9
:1041B00029F021912223D9F38F5FF9CF81110E9439
:1041C000B420E091CB01F091CC01309731F0028026
:1041D000F381E02D8EE492E009940895BF92CF928E
:1041E000DF92EF92FF920F931F93CF93DF938C0197
:1041F000C090C401D090C501E090C601F090C70105
:104200008091A2029091A302A091A402B091A50274
:10421000C82AD92AEA2AFB2ACFE1D0E0D701C60171
:104220000C2E04C0B695A795979587950A94D2F75A
:1042300080FD04C0219790F7B12C07C0BC2EB801B7
:104240008C2F0E94570B0197A9F38B2DDF91CF91F3
:104250001F910F91FF90EF90DF90CF90BF90089546
:10426000CF93DF93EC010E94EE20BE010E94570B1A
:10427000DF91CF910895990F990F890F682F669557
:1042800066956695982F977085E0689FB001112418
:1042900040E050E080E0FB01E40FF51FE257FD4FE6
:1042A000208130E0092E02C0369527950A94E2F766
:1042B00021703327042E01C0220F0A94EAF7822BC3
:1042C0004F5F5F4F4530510531F70895990F990FB2
:1042D000890FE82FE695E695E695877051E001C0D5
:1042E000550F8A95EAF785E0E89FF0011124E2571F
:1042F000FD4F20E030E070E04081CB01022E02C093
:10430000969587950A94E2F7817081958427852395
:10431000842781932F5F3F4F2530310569F708953A
:104320000E94250D6093C4017093C5018093C6015E
:104330009093C7010C942E1F0F931F9341E050E000
:1043400060E070E004C0440F551F661F771F8A9518
:10435000D2F78091C4019091C501A091C601B0919E
:10436000C7018A019B01082719272A273B27C90172
:10437000B8011F910F910C9490210F931F9341E06E
:1043800050E060E070E004C0440F551F661F771FC7
:104390008A95D2F740955095609570958091C401AB
:1043A0009091C501A091C601B091C7018A019B01FE
:1043B000082319232A233B23C901B8011F910F9118
:1043C0000C94902120919D028095822380939D02E0
:1043D000982F977079F430E0482F082E000C550B79
:1043E0002417350739F08595859585950E94BD215F
:1043F00010929D0208950F931F9341E050E060E0FA
:1044000070E004C0440F551F661F771F8A95D2F7CE
:104410008091C4019091C501A091C601B091C701DE
:104420008A019B01082B192B2A2B3B2BC901B801B0
:104430001F910F910C9490216093A2027093A3029C
:104440008093A4029093A5020C942E1F80918D025C
:1044500090915C02891719F08F5F8770FBCF0895E8
:104460000F931F93CF93DF9380915B0282958F70A0
:1044700009F05DC080915802882309F458C08091EA
:104480008D0210915C026091560270915702C091AA
:104490005902D0915A0291E06F3F09F090E0292F24
:1044A00006E0811709F443C0209721F07F3F21F0F7
:1044B00030E003C031E001C0322F90E030FD34C065
:1044C000089FF001099FF00D1124DF01A35ABD4F91
:1044D00011963C911197371327C03C91361324C095
:1044E00012963C91129731111FC013964D915C9119
:1044F00014974C1B5D0B483C5105B0F480915B0256
:104500008F70806180935B02EE59FD4F80818F70C8
:104510008061808386E592E00E948002DF91CF91E6
:104520001F910F910C94262201968770BACFDF91CC
:10453000CF911F910F9108959B01AC01F89460E019
:1045400079E08DE390E00E945423DA01C9010197DC
:10455000A109B109B695A795979587958093CC0049
:1045600082E08093C80088E98093C90086E0809348
:10457000CA001092E8021092E9021092A60210926C
:10458000A702789408959091E9029F5F2091E80234
:10459000921303C00FB607FE0EC02091E8029217D7
:1045A000E1F3E92FF0E0E651FD4F80839093E902BB
:1045B00088EB8093C90008959091A7028091A6028C
:1045C0009817D1F39091A6029F5F903408F090E085
:1045D000E92FF0E0E855FD4F80819093A602089501
:1045E0005091A7024091A602852F90E0242F30E041
:1045F000541710F4805C9F4FAC01421B530B81E0B9
:10460000141615060CF080E008951F920F920FB655
:104610000F9211248F939F93EF93FF939091E90250
:104620008091E802981304C088E98093C9000CC007
:104630008091E8028F5FE82FF0E0E651FD4F908116
:104640009093CE008093E802FF91EF919F918F911C
:104650000F900FBE0F901F9018951F920F920FB6DC
:104660000F9211242F938F939F93EF93FF93909129
:10467000CE008091A7028F5F803408F080E0209107
:10468000A602821739F0E82FF0E0E855FD4F90833D
:104690008093A702FF91EF919F918F912F910F909F
:1046A0000FBE0F901F901895A1E21A2EAA1BBB1BDC
:1046B000FD010DC0AA1FBB1FEE1FFF1FA217B307EE
:1046C000E407F50720F0A21BB30BE40BF50B661F04
:1046D000771F881F991F1A9469F7609570958095C8
:1046E00090959B01AC01BD01CF0108958F929F92DF
:1046F000AF92BF92CF92DF92EF92FF92CF93DF9370
:10470000EC01688179818A819B8161157105810540
:10471000910521F464E279ED8BE597E02DE133EF2B
:1047200041E050E00E941A2449015A019B01AC016A
:10473000A7EAB1E40E9439246B017C01ACEEB4EF2E
:10474000A50194010E944724DC01CB018C0D9D1D25
:10475000AE1DBF1DB7FF03C00197A109B0488883F4
:104760009983AA83BB839F77DF91CF91FF90EF90CE
:10477000DF90CF90BF90AF909F908F9008950E9450
:104780007623089580E091E00E9476230895A0E0CA
:10479000B0E08093000190930101A0930201B093D7
:1047A00003010895F999FECF92BD81BDF89A99272A
:1047B00080B50895A6E1B0E044E050E00C940C24EC
:1047C000A8E1B0E042E050E00C940C24262FF999C7
:1047D000FECF92BD81BDF89A019700B4021639F060
:1047E0001FBA20BD0FB6F894FA9AF99A0FBE089531
:1047F0000396272F0E94E7230E94E623252F0E947D
:10480000E723242F0C94E7230196272F0E94E72308
:104810000C94E623DC01CB01FC01F999FECF06C024
:10482000F2BDE1BDF89A319600B40D92415050406E
:10483000B8F70895052E97FB1EF400940E943124CA
:1048400057FD07D00E94542307FC03D04EF40C946C
:10485000312450954095309521953F4F4F4F5F4FF4
:10486000089590958095709561957F4F8F4F9F4FDC
:1048700008950E944C24A59F900DB49F900DA49F75
:10488000800D911D11240895B7FF0C9439240E94C6
:104890003924821B930B0895A29FB001B39FC001DE
:1048A000A39F700D811D1124911DB29F700D811D5C
:1048B0001124911D0895991B79E004C0991F961742
:1048C00008F0961B881F7A95C9F780950895AA1B52
:1048D000BB1B51E107C0AA1FBB1FA617B70710F0EB
:1048E000A61BB70B881F991F5A95A9F7809590951D
:1048F000BC01CD01089597FB072E16F4009407D054
:1049000077FD09D00E94672407FC05D03EF49095FE
:1049100081959F4F0895709561957F4F0895EE0F93
:10492000FF1F0590F491E02D09940E944C2433233D
:1049300012F48A1B9B0B0C949F240E944C24B7FFFB
:104940000895821B930B0895FC014150504030F0B4
:1049500001900616D1F73197CF010895882799273E
:064960000895F894FFCF5A
:10496600010000005800019C210000EA13CA130050
:10497600000000000000000000000000000401FF2D
:1049860001191A1B1C1D1E1F202122013D0F7B0F22
:104996003C0F770F730F01020101000102020202B0
:1049A6000606060909090909090F0F0F0F0F0F154A
:1049B6001515181919191919191919191923242549
:1049C6002525252525F4F5F6F731C697669400FFCB
:1049D6000100010000FFFF0000010001FF008182CD
:1049E60083E200E900EA00B500B600B700CD008317
:1049F60001CC008A0192019401210223022402259E
:104A060002260227022A02B300B4006F00700000DB
:00000001FF
