:100000000C9490010C94D7010C94F2010C94D7013C
:100010000C94D7010C94D7010C94741C0C94D70148
:100020000C94D7010C94D7010C94D7010C94D701F0
:100030000C94D7010C94D7010C94CD1C0C94D701CF
:100040000C94D7010C94D7010C94D7010C94D701D0
:100050000C94D7010C94D7010C94D7010C94D701C0
:100060000C94D7010C94D701B30BB60BD00BE10B5A
:10007000E90BF40B3A0C3A0C3A0C3A0C3A0CF70B2D
:10008000FA0BFF0B0C0C190C1C0C200C2D0C57122E
:10009000571289128912CB12E9120F140F14F4129D
:1000A00089139A139A13FF130F140F140814AF1423
:1000B000AF14C114C114B814C114C114C114AF14C5
:1000C000AF14BD14C114C114BD143A003B003C0070
:1000D0003D003E003F000100010001000100010061
:1000E0000100010001000100010001000100010008
:1000F00001000100010001000100000000000000FB
:1001000000002A2B28000000000000000000000072
:10011000000000000029000000002C1E34202122D5
:1001200024342627252E362D3738271E1F2021223E
:10013000232425263333362E37381F0405060708B7
:10014000090A0B0C0D0E0F101112131415161718A7
:10015000191A1B1C1D2F3130232D350405060708E5
:10016000090A0B0C0D0E0F10111213141516171887
:10017000191A1B1C1D2F3130354C000000000000E7
:10018000000000000000000000000000000000006F
:1001900000000000000000000000000000007E0FD2
:1001A00000D4FFFFFFC70000007809025B000301D5
:1001B00000A0FA0904000001030101000921010166
:1001C0000001224000070581030800010904010025
:1001D000020300000009210101000122220007059D
:1001E0008403080001070504030800010904020054
:1001F0000103000000092101010001227B00070525
:1002000083030800011201100100000008616E6202
:10021000600100010200011203530043005200413B
:10022000004D0042004C004500000012036E0075B6
:10023000006C006C00620069007400730000000430
:100240000309040660FF0961A1010962150026FF88
:10025000009520750881020963150026FF0095208E
:1002600075089102C005010902A10185020901A1D9
:100270000005091901290815002501950875018156
:10028000020501093009311581257F950275088124
:100290000609381581257F950175088106050C0A28
:1002A00038021581257F950175088106C0C00501BA
:1002B0000980A101850319012AB700150126B7009D
:1002C000950175108100C0050C0901A10185041973
:1002D000012AA002150126A002950175108100C017
:1002E00005010906A101050719E029E71500250107
:1002F00095087501810295017508810305071900AC
:1003000029FF150026FF00950675088100050819CC
:10031000012905950575019102950175039103C0A9
:1003200011241FBECFEFD8E0DEBFCDBF04B603FE61
:1003300027C080911F0390912003A0912103B091C9
:1003400022038730904BA740B04BD1F410921F038B
:1003500010922003109221031092220314BE84B73E
:10036000877F84BF0FB6F894A8958091600088615C
:1003700080936000109260000FBEE0E0F8E3099502
:1003800011E0A0E0B1E0E6E7F2E402C005900D92D2
:10039000AE38B107D9F723E0AEE8B1E001C01D9255
:1003A000AF31B207E1F70E94481D0C9439210C943B
:1003B0000000A82FB92F80E090E041E050EA60955E
:1003C00030E009C02D9182279795879510F08427FA
:1003D0009527305EC8F36F5FA8F30895EADF8D9329
:1003E0009D930895CF93CFB7CF93DF93C3954B9B46
:1003F000E9F74B9B10C04B9B0EC04B9B0CC04B9B1B
:100400000AC04B9B08C04B9B06C0C091F602C39527
:10041000C093F6028EC06F93C091F502DD27C350E2
:10042000DD4F2F9365E54B9B03C02F916F91E1CF7B
:100430000F931F934F9320E040E15F9309B10C703D
:1004400003FB27F93F9350E03BE039C01C70406448
:100450002F77012F5F5F1EC0406819B11C702F7786
:1004600052501FC0406409B12F770C70D1F15F5F0B
:1004700000C023C0406219B12F771C7091F15F5FFB
:1004800000C025C00C701027515012F45D5F0000B1
:10049000115027952C3F19B1C8F61C700127015047
:1004A00027952C3FC8F64227499309B10C701027B5
:1004B0004F73115027952C3FA8F64695469519B1D4
:1004C0001C7079F00127015027952C3F98F66B5A44
:1004D00060F3315009B1B0F600C012E01CBB002738
:1004E0001CC03B503195C31BD04012E01CBB08819F
:1004F000033C21F10B3411F12091F2021981110F0B
:100500001213EDCF4A81441F093679F10D3211F0F3
:10051000013E29F74F7009F0042F0093FB023F9131
:100520005F914F911F910F912F916F91CCB3C1FDAE
:100530005DCFDF91CF91CFBFCF9118952091FB0276
:10054000222369F31091F902112309F049C03430D4
:100550000AF448C03093F9022093F4021091F50296
:100560003BE0311B3093F5023DC00091F9020130B0
:10057000BCF50AE54F7049F43091150134FD33C0E4
:1005800000931501CFECD2E032C0433059F0443033
:1005900091F03091DA0234FD26C00093DA02CBEDFF
:1005A000D2E025C03091130334FD1DC00093130326
:1005B000C4E1D3E01CC03091E60234FD14C00093C6
:1005C000E602C7EED2E013C0052710E000C000002D
:1005D0000BB91AC0052710E0221F1DC010E021C072
:1005E0004AE502C032ED432FC4E1D0E032E01AB157
:1005F0001C605B9A0BB11AB95CE020E865E320FF50
:1006000005270BB9279517951C3FF0F66695B8F7A7
:10061000B1F720FF05270BB9279517951C3FD0F69A
:100620002795179517FF052700001C3F0BB9B0F65B
:1006300029913A9519F7037F1091FA02110FC651CB
:10064000D0400BB911F01093F20212E01CBB08600D
:100650001AB1137F402F437F54E05A95F1F70BB93D
:100660001AB94BB95CCF813031F038F0823039F4AF
:10067000229A2A9A0895229801C0229A2A980895C7
:1006800080E00C943303662311F089EA01C08AEA02
:100690000C940D1281E0089581E008950C944C03B0
:1006A00008950C9450031F93CF93DF9300D000D094
:1006B0001F92CDB7DEB749835A836B833091BC015B
:1006C00089819A81311114C0662359F0222349F09F
:1006D0000E94E819182F682F89819A810E94911928
:1006E00003C00E94BC19182F69817A81812F04C030
:1006F0000E94E81969817A810F900F900F900F90F6
:100700000F90DF91CF911F910C94070DFC01262FC4
:10071000408151816281738184810C945303CF9312
:10072000DF93EC0160E00E948603BE01DF91CF9170
:100730000C9451038F929F92AF92BF92CF92DF920F
:10074000EF92FF920F931F936B017C0181E090E089
:10075000A0E0B0E04C015D0104C0880C991CAA1C0B
:10076000BB1C4A95D2F7AC01BD0104C0440F551F14
:10077000661F771F2A95D2F7482959296A297B29AC
:1007800004C0880F991FAA1FBB1F0A95D2F78A01C0
:100790009B010C211D212E213F214017510762078B
:1007A000730739F4BC01CD016C297D298E299F295D
:1007B0000AC080959095A095B095BC01CD016C21A3
:1007C0007D218E219F211F910F91FF90EF90DF904F
:1007D000CF90BF90AF909F908F9008950F93382F38
:1007E000262F6091FA017091FB018091FC0190919C
:1007F000FD01042F432F0E949A030F910C94CD18F2
:100800000E940F1D0E94221B811102C00E94C91B61
:100810000C9448070C94460708950E949D140E946A
:100820000C042FEF84E39CE0215080409040E1F7DE
:1008300000C000000C94F31C0F931F93CF93DF9321
:10084000EC0161E00E9486038C01BE010E94650BF1
:10085000882379F1BE01C8010E944E03882349F123
:10086000BE01C8010E943C0E882319F1BE01C801D7
:100870000E948E0E8823E9F0BE01C8010E94B90FC4
:100880008823B9F08A81882369F001158CE518075F
:1008900031F00E3D1C4531F40E94C91B0AC00E9474
:1008A0000D0407C0CE01DF91CF911F910F910C94E1
:1008B0004A0380E0DF91CF911F910F910895DF925D
:1008C000EF92FF920F931F93CF93DF93E82FF0E007
:1008D000E650FF4FD490282F26952695269530E098
:1008E000F901E656FE4F0491877010E0082E02C011
:1008F000159507950A94E2F701701127F901E6575B
:10090000FE4FE490F12C082E02C0F594E7940A946F
:10091000E2F791E0E922FF24F901E658FE4FC49185
:10092000D0E002C0D595C7958A95E2F7C170DD2762
:100930000115110519F081EE0E946C11E114F1040A
:1009400019F086EE0E946C118D2D0E940D12EF2879
:1009500019F086EE0E94C211012B19F081EE0E945F
:10096000C211CD2B51F08CE2DF91CF911F910F91ED
:10097000FF90EF90DF900C940D12DF91CF911F91BB
:100980000F91FF90EF90DF900895EF92FF920F93F9
:100990001F93CF93DF93EC01162F0AE08881882301
:1009A00009F455C0813009F043C08981813041F498
:1009B0007E0182E0E80EF11C8A810E940D1209C0BE
:1009C000823049F47E01E2E0EE0EF11C8A810E9441
:1009D0006C11E7012FC0833041F47E01F2E0EF0E8D
:1009E000F11C8A810E94C211F4CF843011F021964B
:1009F00021C02A81229680E090E030E02053310926
:100A00002A30310558F4089FA001099F500D112488
:100A1000C901840F951F21962881EFCF009751F0CF
:100A2000EFE9FFE03197F1F700C000000197F6CF42
:100A30000E945F042196812F882309F4AFCFEFE94C
:100A4000FFE03197F1F700C000008150F5CFDF9152
:100A5000CF911F910F91FF90EF90089560E00C945B
:100A6000C50408950C94310581E008950C94340573
:100A7000CF93C82F0E9432058C2F0E943605CF914C
:100A8000089580E090E008950895880F991FFC0173
:100A9000E655FE4F859194910895CF93DF930E9480
:100AA000070D0E946506EC018115904508F041C0D4
:100AB000C11580E4D80708F0D1C0C83ED10510F5B3
:100AC000C03ED10508F0FDC0C83AD10578F4C53A5A
:100AD000D10508F0A2C0C130D10509F4F2C008F474
:100AE000EEC0C430D10508F0ECC0E9C0CF3BD10561
:100AF00008F49BC0C03CD10508F4E1C0CE01805C85
:100B000091099EC0C11590E2D90758F4C11521E0A2
:100B1000D20708F0D6C0C03FD10508F4D0C0D065D8
:100B2000D0C0C11580E3D80708F08EC0CE019F70F9
:100B300087C0C11595E5D90708F043C0C11524E564
:100B4000D20708F0A2C0C11582E5D80708F5C11583
:100B500091E5D90708F085C0CE0174E09695879598
:100B60007A95E1F783709C2F937021E030E002C00A
:100B7000220F331F9A95E2F73C68382BCF70C69549
:100B8000C69580E2C89FE0011124C22BD32B99C0E7
:100B90009E01237033278C2F86958695C115D345EA
:100BA00008F064C0C1E0D0E002C0CC0FDD1F2A9580
:100BB000E2F720E2829FC0011124C82BD92BDC6808
:100BC00080C0C11529E5D207A0F4C11588E5D80772
:100BD00008F060C0C11596E5D90708F070C08C2FE9
:100BE0000E94F9068F71C82FD0E0DC2FCC27D0628D
:100BF00068C0C1152AE5D20708F451C0CE0190564D
:100C00008115904208F05BC08D2F8F710E94F9060C
:100C1000DD27D0628F71D82B54C0C55AD0E0CC5B91
:100C2000DE4FC881D0E0D0644CC0C85AD0E0CC0FB1
:100C3000DD1FCA5EDE4F0990D881C02DD46441C04B
:100C40000E944505EC013DC0CE019927D3FF03C0AA
:100C5000EC01D86C36C0EC01D06C33C0DF70D06AC8
:100C600030C0DC2FCC27C16FD06A2BC0C1E0D0E0F0
:100C700002C0CC0FDD1F2A95E2F720E2829FC0015F
:100C80001124C82BD92BDA681CC0DC2FCC27C46FE9
:100C9000D06A17C0DC2FCC27C06FD06A12C08C2F4F
:100CA0008F700E94F90694E0D695C7959A95E1F762
:100CB000CF70D0E0DC2FCC27D069C82B02C0C0E0B9
:100CC000D0E0CE01DF91CF9108958238910569F18E
:100CD000B0F48133910509F46DC048F4893291056F
:100CE00009F463C08A32910509F469C00895853317
:100CF000910509F455C089339105B9F00895833EF3
:100D0000910569F138F4803E9105B1F0823E91057C
:100D100009F10895863E9105A9F1873E9105B9F143
:100D2000843E910509F064C023C02091CD0220FDCE
:100D30004FC021FD4DC008958091CD0280FD44C07B
:100D40008091CE0280FF44C08091CD0284FD42C0DC
:100D500083EE4DC08091CD0282FF38C0F5CF8091E7
:100D6000CD0282FD33C08091CE0280FD31C0ECCF38
:100D70008091CE0281FF32C08091CD0284FD2AC0D5
:100D800087EE35C08091CD0283FF26C0F5CF8091DC
:100D9000CD0283FD21C08091CE0281FD1FC0ECCF2A
:100DA0008091CD0285FD1CC01DC08091CD0285FDC6
:100DB00019C016C08091CD0286FD16C017C0809163
:100DC000CD0286FD13C010C089E311C082EE0FC0B2
:100DD00080EE0DC080E00BC086EE09C084EE07C037
:100DE00089E205C085E303C08AE201C081E390E0A7
:100DF00008959091CD0292FF0DC0282F28712830C0
:100E000019F4877F846006C0282F2471243011F4E0
:100E10008B7F886093FF0DC0282F2871283119F42B
:100E2000877E846106C0282F2471243111F48B7EC3
:100E300088612091CE0220FF0DC0382F38713830E4
:100E400019F4877F816006C0382F3171313011F479
:100E50008E7F886021FF0DC0282F2871283119F45A
:100E6000877E816106C0282F2171213111F48E7E89
:100E7000886194FD877E0895E82FF0E0E953FD4FE7
:100E800080810895089508950C9443070C944407B5
:100E90000C944003CF93DF9347E451E0A1E0B0E02E
:100EA00020E030E0FA01E20FF31F80818F3FA1F0D4
:100EB000E82FE295EF70F0E061A18F70ED0102C0C4
:100EC000CC0FDD1F8A95E2F7CE019C2F90959623DB
:100ED00091A392A1892B82A32F5F3F4F233031052D
:100EE00009F74D5F5F4FD1E04D345D07C9F61092B1
:100EF000C5021092C7021092C6021092C80282E088
:100F00000E94D607DF91CF910C9400040F931F939A
:100F1000CF93DF93E5ECF2E067E471E0C0E001E03D
:100F200010E080E090E050E0DB01A80FB91F4C9189
:100F30004F3FC9F0A42FA295AF70B0E090962C91CE
:100F400030E04F7002C0359527954A95E2F720FDB5
:100F500007C09801082E01C0220F0A94EAF702C0C8
:100F600020E030E0522B019683309105E9F6808134
:100F7000851719F0508381E001C080E0C82B3196BD
:100F80006D5F7F4F82E0E73CF80759F62C2F42E077
:100F900067EC72E085EC92E00E94D7070E940A0499
:100FA0008C2FDF91CF911F910F9108950895FF929B
:100FB0000F931F93CF93DF938C01F62ED72FC42F5F
:100FC000222349F081E0809392010E94A61C909315
:100FD000910180939001809192018823C1F08091CA
:100FE0009001909191010E94BE1C0B9780F0EF2D13
:100FF000FD2FD8014C2F50E0CD01801B910B8417A1
:1010000095071CF48D918193F7CF10929201DF9197
:10101000CF911F910F91FF9008958091990180FFCA
:101020000BC06091050185E0689FB00111247595A2
:101030006795759567952BC081FF09C06091050183
:1010400085E0689FB00111247595679520C082FFE7
:1010500007C06091050185E0689FB001112417C0A9
:10106000909198019923D1F060910401961788F727
:101070002091050185E0289F90011124929FA001F5
:10108000939F500D112470E0CA010E94C220603865
:10109000710540F46115710519F406C065E070E052
:1010A000862F08958FE7089581E008958091990132
:1010B00080FF08C06091010170E075956795759596
:1010C000679521C081FF06C06091010170E07595B0
:1010D000679519C082FF04C06091010170E010C0E3
:1010E00090919701992399F0609100019617A0F7CC
:1010F00080910101899FC001112470E00E94C220EB
:101100006038710540F46115710519F406C061E09D
:1011100070E0862F08958FE7089581E00895803F5D
:1011200021F40E940D08819504C0813F29F40E949A
:101130000D0880939D010895823F21F40E940D08BF
:10114000819504C0833F29F40E940D0880939C017F
:101150000895893F19F40E94560805C08A3F31F46A
:101160000E945608819580939E0108958B3F21F43B
:101170000E945608819504C08C3F29F40E945608AD
:1011800080939F0108959CE0980F953078F421E0BA
:1011900030E0A90102C0440F551F9A95E2F7CA0139
:1011A00090919B01892B80939B0108958D3F21F4A1
:1011B0008091990181600BC08E3F21F4809199014B
:1011C000826005C08F3F29F48091990184608093EB
:1011D00099010895803F39F490919D0197FF35C0A2
:1011E00010929D0159C0813F29F490919D011916DB
:1011F000BCF32BC090919C01823F29F497FF25C03E
:1012000010929C0149C0833F19F41916CCF31DC0FC
:1012100090919E01893F29F41916BCF410929E0109
:101220003BC08A3F19F497FF10C0F8CF8B3F39F4C9
:1012300090919F0197FF09C010929F012DC08C3F94
:1012400021F490919F011916BCF39CE0980F953002
:1012500080F421E030E0A90102C0440F551F9A95A7
:10126000E2F7CA01809590919B01892380939B01AD
:1012700013C08D3F21F4809199018E7F0BC08E3F6A
:1012800021F4809199018D7F05C08F3F29F48091D1
:1012900099018B7F8093990180919C01811106C0F7
:1012A00080919D01811102C01092980180919E0150
:1012B000811106C080919F01811102C01092970197
:1012C00008950E94A61C20919C01211104C0209128
:1012D0009D01222321F09093960180939501209106
:1012E0009E01211104C020919F01222321F090939F
:1012F0009401809393018AE991E00C940610EF9297
:10130000FF920F931F93CF93DF9300D000D000D0B4
:10131000CDB7DEB786E0EAE9F1E0DE011196019093
:101320000D928A95E1F7E0909C01F0909D0100916B
:101330009E0110919F0110929C0110929D011092AC
:101340009E0110929F01E11003C0FF2009F45DC0CF
:1013500080919501909196010E94BE1CAC019091E4
:101360009801992339F02091060130E024173507C0
:1013700058F04BC0209107018AE0289F900111246A
:101380002417350718F041C09F3F19F09F5F9093D5
:101390009801EE2061F00E940D081E1414F09FEFDA
:1013A00001C091E0989F902D112490939C01FF2003
:1013B00061F00E940D081F1414F09FEF01C091E02E
:1013C000989F902D112490939D0130919C0133237F
:1013D000E1F020919D012223C1F045EB3403C001CF
:1013E0001124992319F090939C0103C081E080930C
:1013F0009C0135EB2303C0011124992319F090932C
:101400009D0103C081E080939D01011103C0112360
:1014100009F45DC080919301909194010E94BE1CDB
:10142000AC0190919701992339F02091020130E0AD
:101430002417350758F04BC0209103018AE0289FFC
:10144000900111242417350718F041C09F3F19F06F
:101450009F5F90939701002361F00E945608101639
:1014600014F09FEF01C091E0989F902D112490936C
:101470009E01112361F00E945608111614F09FEF8F
:1014800001C091E0989F902D112490939F0130917D
:101490009E013323E1F020919F012223C1F045EB0F
:1014A0003403C0011124992319F090939E0103C0C5
:1014B00081E080939E0135EB2303C0011124992321
:1014C00019F090939F0103C081E080939F01809168
:1014D0009C0181110BC080919D01811107C08091F9
:1014E0009E01811103C080919F0181110E946109B9
:1014F000EB82FC820D831E8386E0FE013196AAE911
:10150000B1E001900D928A95E1F726960FB6F89416
:10151000DEBF0FBECDBFDF91CF911F910F91FF9026
:10152000EF900895EAE9F1E086E0DF011D928A95E7
:10153000E9F710929801109297011092990108957D
:101540000C94430356985E9A57985F9A89B186FB2C
:10155000882780F929B130E0220F232F221F330B77
:10156000232B11F490E001C092E0892B8093A2011B
:101570000895E091A201EE0FEE0FE093A20129B1D0
:1015800026FB882780F990E029B130E0220F232F35
:10159000221F330B2115310511F022E030E0822BA0
:1015A000932B8E2B8093A2018F70E82FF0E0E35BEA
:1015B000FE4F90818091A101890F8093A101843019
:1015C0005CF08091A0018F5F8093A00160E080E0DB
:1015D0000E94A00A21E001C020E08091A1018D3F7E
:1015E00054F48091A00181508093A00161E080E0DB
:1015F0000E94A00A21E08091A101082E000C990B05
:1016000064E070E00E94C2208093A101822F0895BF
:1016100082E290E00E94F720813281F483E290E040
:101620000E94F720863051F484E290E00E94F72077
:1016300091E0823109F090E0892F01C080E0817053
:101640000895CF93C82F811102C06FEF01C061E2EE
:1016500082E290E00E940521C11102C06FEF01C03B
:1016600066E083E290E00E940521C11102C06FEFA5
:1016700001C062E184E290E0CF910C94052180E00A
:101680000E94210B0C941C1B089585E290E00E949F
:10169000F720682F70E080E090E0089585E290E008
:1016A0000C9405210E94440B0E94080B81110CC070
:1016B00060E070E0CB010E944E0B0E94840C0E94FF
:1016C000610D81E00C94210B0895CF93FB01C28141
:1016D000CC23E9F09C0122513F452031310520F413
:1016E00082510E94710D0CC08031FFE59F0751F4BB
:1016F00081E00E94F31843E062E081E00E94EE0383
:10170000C0E018C081319F45A9F482E0F2CF80315A
:10171000EFE59E0711F481E004C081319F4549F453
:1017200082E00E94141943E062E081E00E94EE032F
:1017300001C0C1E08C2FCF9108952FEFFC012083D1
:1017400008951F93CF93DF93EC01162FE8818E2F1E
:1017500090E0FC013197E331F10508F08BC0EC5CBF
:10176000FF4F0C94D620198289E047C089818230CE
:1017700081F0833029F08130F9F40E94B21C0BC053
:1017800080E00E943C078A8381E00E943C078B83B3
:1017900073C00E94450B9A838B837C836D836CC0DE
:1017A0008981823049F46A817B818C819D810E948C
:1017B000DC200E944E0B60C0612FCE010E949D0B69
:1017C0005BC04B816A8189810E94560C9C838D830A
:1017D00053C02C813D813227232732274B816A81D8
:1017E00089810E946F0C48C00E94840C45C00E94F1
:1017F000140D24C00E94160D99838A833DC06B810D
:1018000070E089819A81AE014C5F5F4F98278927EC
:1018100098270E94190D30C06B8170E089819A81F0
:10182000AE014C5F5F4F9827892798270E943E0D95
:1018300023C00E94610D20C00E94430C89831CC0FC
:101840006B8170E089819A81AE014C5F5F4F982770
:10185000892798270E94C30C0FC06B8170E0898193
:101860009A81AE014C5F5F4F9827892798270E9485
:10187000E60C02C08FEF8883612FCE01DF91CF91FC
:101880001F910C946F1E84E0089550E0440F551F83
:1018900026E0629F400D511D11249A016CE0869F45
:1018A000200D311D1124C901869608950F931F93B1
:1018B000CF93DF930E94450C8C010E94F720C82F24
:1018C000D0E0DC2FCC27C80101960E94F7209E01B2
:1018D000282BC901DF91CF911F910F9108950F938C
:1018E0001F93CF93DF93122F032F0E94450CEC011F
:1018F000602F0E940521612FCE010196DF91CF91CB
:101900001F910F910C940521AF92BF92CF92DF925D
:10191000EF92FF920F931F93CF93DF93A12CE12CB3
:10192000F12CB12C00E010E0C0E0D0E06701C00E67
:10193000D11EFE01EE0FFF1FEC0DFD1DE653FF4F04
:10194000259134914C2F6B2D8A2D0E946F0C21967E
:10195000C330D10571F70A5F1F4FB39482E0B8120C
:10196000E3CF8CE0E80EF11CA39484E0A812D9CF59
:10197000DF91CF911F910F91FF90EF90DF90CF906B
:10198000BF90AF900895EF92FF920F931F93CF9364
:10199000DF93EA017A01E60EF71E8C01C8018696F4
:1019A000CE15DF0561F00033110520F40E94F72009
:1019B000888301C0188221960F5F1F4FEFCFDF9100
:1019C000CF911F910F91FF90EF900895EF92FF92AA
:1019D0000F931F93CF93DF93EA017A01E60EF71E70
:1019E0008C01C8018696CE15DF0551F00033110534
:1019F00018F468810E94052121960F5F1F4FF1CFD7
:101A0000DF91CF911F910F91FF90EF900895462F96
:101A1000843038F4723028F4633018F4672F0C9453
:101A2000560C80E090E0089580E108958AEA93E002
:101A30000895EF92FF920F931F93CF93DF93EA01E4
:101A40007A01E60EF71E8C01C8018A5A9F4FCE1507
:101A5000DF0569F00A3A23E0120720F40E94F7201C
:101A6000888301C0188221960F5F1F4FEDCFDF9151
:101A7000CF911F910F91FF90EF900895EF92FF92F9
:101A80000F931F93CF93DF93EA017A01E60EF71EBF
:101A90008C01C8018A5A9F4FCE15DF0559F00A3ACA
:101AA00023E0120718F468810E94052121960F5F38
:101AB0001F4FEFCFDF91CF911F910F91FF90EF90CC
:101AC0000895CF93DF93C6E5D0E060E0CE010E9499
:101AD00005212196C11584E0D807B9F7DF91CF9190
:101AE0000895DF92EF92FF920F931F93CF93DF93AE
:101AF00000D000D0CDB7DEB7F82E8FE08F15E8F11B
:101B00008FEF93E00E94F720811137C006E510E0C7
:101B1000FF2069F0011584E0180779F1C8010E94DF
:101B2000F720811101C0FA940F5F1F4FF1CF198286
:101B30001A821B821C82DD24D39478018FEFE81A6D
:101B4000F80AC8010E94F72089831A828823A9F025
:101B50009FEF980F933058F48A83D9820E5F1F4FFE
:101B6000C7010E94F7208B83882339F07801CE01CA
:101B700001960E942E058701E0CF0F900F900F90E5
:101B80000F90DF91CF911F910F91FF90EF90DF9019
:101B900008950F931F93CF93DF93C42FD22FFC018F
:101BA00082818823C9F04093A5010E94A61C9093CE
:101BB000A4018093A30180E28C0F883008F057C005
:101BC000C77081E001C0880FCA95EAF7DF91CF9115
:101BD0001F910F910C9416128091A501481330C0EB
:101BE0008091A3019091A4010E94BE1C883C9105A4
:101BF00038F510E21D0FCD17B9F080E28C0F883058
:101C000040F4C77081E001C0880FCA95EAF70E94CE
:101C10001D12183028F581E09D2F977001C0880FA4
:101C20009A95EAF70E941612802F0E940D12183022
:101C3000F0F4D77081E001C0880FDA95EAF70AC0A6
:101C400080E28C0F883098F4C77081E001C0880F63
:101C5000CA95EAF7DF91CF911F910F910C941D1255
:101C6000802FDF91CF911F910F910C940D12DF9176
:101C7000CF911F910F9108950F939C01CB01233FAA
:101C80004CE5340731F188F4283DFCE53F07D9F0F5
:101C9000293D4CE5340779F1273D3C45A9F506E29D
:101CA00021EE41EE67ED7CE52BC0253FFCE53F07CB
:101CB000E1F0A8F0263F3C4539F507E225EE46EE77
:101CC00066EF7CE51DC007E225EE45EE68ED7CE59C
:101CD00017C006E221EE40EE63EF7CE511C007E29B
:101CE00025EE44EE64EF7CE50BC006E221EE42EE09
:101CF00065EF7CE505C008E221E045EE69ED7CE595
:101D00000E94C90D80E008C0FC018281882319F07F
:101D10001092A50101C081E00F910895CF93DF9348
:101D2000EC01FB018281882309F41FC1C230FCE56C
:101D3000DF0708F41BC1C6319CE5D90738F09E01C6
:101D40002A5F3C452930310508F010C10E94351B3F
:101D50009093CE028093CD02C031ECE5DE0709F40A
:101D6000C3C008F041C0C8308CE5D80709F49AC058
:101D7000F0F4C430ECE5DE0709F487C068F4C23043
:101D80008CE5D80709F477C0C330DC4509F0E3C01F
:101D90008091CD02826076C0C630ECE5DE0709F4A2
:101DA0006EC008F07BC08091CD0288606BC0CC30E3
:101DB0008CE5D80709F485C068F4CA30ECE5DE0785
:101DC00009F474C008F079C00E949D148091CD027E
:101DD000806858C0CE308CE5D80709F476C008F08A
:101DE0007FC08091CD028BC0CB3FECE5DE0709F4CC
:101DF0004FC018F5C3318CE5D80709F47DC078F4DD
:101E0000C131ECE5DE0709F473C0C231DC4509F0ED
:101E1000A2C00E949D148091CD028F7733C0C5313E
:101E20008CE5D80709F472C008F486C0CA3FDC45C7
:101E300009F091C08091CE023EC0CF3FFCE5DF07A4
:101E400009F45FC058F4CD3F9CE5D90709F444C0BC
:101E500008F43FC08091CE0282602DC0C130FDE504
:101E6000DF0709F475C008F45DC0C230DD4509F034
:101E700072C080E06EC08091CD02816003C080910D
:101E8000CD0280618093CD0266C08091CD0211C0E9
:101E90008091CE0282608093CE025DC08091CD029F
:101EA0008062F0CF8091CD028064ECCF8091CD0232
:101EB00088608460E7CF8160EECF8091CD028E7F15
:101EC000E1CF8091CD028D7FDDCF8091CD02877FE4
:101ED000D9CF8091CE0218C08091CE028D7FDBCF0A
:101EE0008091CD028F7ECECF8091CD028F7DCACFE3
:101EF0008091CD028F7BC6CF8091CD02877F8B7F73
:101F0000C1CF8091CE028D7F8E7FC5CF8091CD02D3
:101F100082FB222720F991E0922790FB82F990FB27
:101F200083F9B0CF8091CE02982F909591708E7FDB
:101F3000892B90FB81F9AFCF0E949D148091CD0237
:101F400087FB222720F991E0922790FB87F99ACF0F
:101F500081E00E94CB1B8091CD029091CE020E9425
:101F6000461B0E949D1480E001C081E0DF91CF916B
:101F70000895CF93DF9386319C4541F5EB010E9494
:101F8000691A982F8A8120910801309109018823CC
:101F900079F09A7A81E009F480E08093A6019111AA
:101FA00002C069E201C065E3C9010E94121C0AC0B7
:101FB0008091A601811102C069E201C065E3C901F7
:101FC0000E94141C0E94B71A80E001C081E0DF91DA
:101FD000CF9108959093AC018093AB010895E09167
:101FE000AB01F091AC01309721F00190F081E02D30
:101FF000099480E00895E091AB01F091AC01309735
:1020000021F00280F381E02D09940895E091AB0165
:10201000F091AC01309739F022E0DC012C93048080
:10202000F581E02D099408952091A9013091AA012C
:102030002817390771F09093AA018093A901E091C4
:10204000AB01F091AC01309721F00680F781E02DD3
:10205000099408952091A7013091A8012817390704
:1020600071F09093A8018093A701E091AB01F091EA
:10207000AC01309721F00084F185E02D099408959A
:102080000E94B21C6093B8017093B9018093BA01A9
:102090009093BB016093B4017093B5018093B60136
:1020A0009093B70108950E94B21C6093B801709399
:1020B000B9018093BA019093BB016093B001709312
:1020C000B1018093B2019093B301089581E0089526
:1020D0000C94661008950C946A100C946A100C9479
:1020E0006D100C946A100C9471100C946A108AE1B3
:1020F0009BE10E94081D0E9475100C9473100E94B1
:102100009D1C0E944A070E94520B0E94261D0E949D
:10211000A20A0C946F109F92AF92BF92CF92DF925F
:10212000EF92FF920F931F93CF93DF93CDB7DEB75C
:102130002A970FB6F894DEBF0FBECDBF0E946B107A
:102140000E946A100E94860781110E9440108EEA48
:10215000A82E81E0B82E00E010E0902E802F0E9483
:102160003C07D82EF501C1905F01C826B1F40F5F7E
:102170001F4F0230110589F78FEF89838A831B82F5
:102180000E94A61C8160782F9D838C8349815A818F
:102190006B818D810E9432112FC080910F0281FDD1
:1021A0000E944207E12CFF24F3948C2D8F21F1F043
:1021B0000E946810882399F0EE829F82DF2081E0E0
:1021C00009F480E088870E94A61C8160782F9A8796
:1021D00089874E815F8168858A850E943211F80166
:1021E000E255FE4F8081F826F08206C0E394FF0C92
:1021F000F3E0EF12DACFBBCF0E94B90A81110E943F
:1022000053100E947F090E94EF0F9091AD01891732
:10221000B9F00E94EF0F8093AD012A960FB6F894A3
:10222000DEBF0FBECDBFDF91CF911F910F91FF9009
:10223000EF90DF90CF90BF90AF909F900C943805B7
:102240002A960FB6F894DEBF0FBECDBFDF91CF91B7
:102250001F910F91FF90EF90DF90CF90BF90AF90C4
:102260009F900895DF92EF92FF920F931F93CF9369
:10227000DF93CDB7DEB72B970FB6F894DEBF0FBE56
:10228000CDBFF42E052F162FE72ED82E61110E94F8
:10229000891AFE01319686E0DF011D928A95E9F7E1
:1022A0007E2D4F2D502F612F8D2D9E810E94561710
:1022B0002B960FB6F894DEBF0FBECDBFDF91CF9146
:1022C0001F910F91FF90EF90DF900895FC018081A6
:1022D00091810E942A1A0895CF93882309F450C04F
:1022E000C82F8CEF8C0F813AD0F46C2F80910801AD
:1022F000909109010E94DC1B882349F06C2F80918A
:102300000801909109010E94141C0E94B71A6C2FB9
:1023100080910801909109010E94121C0CC080E27A
:102320008C0F883058F4C77081E001C0880FCA95BF
:10233000EAF70E946C1ACF910C94B71AEBE5EC0FF8
:10234000E33040F4F0E0E557FE4F808190E0CF911C
:102350000C941410E8E5EC0FE73150F4F0E0EE0FC8
:10236000FF1FE35AFE4F80819181CF910C942A1078
:10237000C03F30F08C2F0E948F08CF910C946109E0
:10238000CF910895882389F19CEF980F913A40F4FA
:10239000682F80910801909109010E94141C0DC0C2
:1023A00090E2980F983058F4877091E001C0990F2F
:1023B0008A95EAF7892F0E94721A0C94B71A9BE546
:1023C000980F933020F480E090E00C94141098E57E
:1023D000980F973120F480E090E00C942A10803F11
:1023E00020F00E94EA080C94610908951F93CF938E
:1023F000DF93182FEB010E946C11209741F08FE9B9
:102400009FE00197F1F700C000002197F6CF812FE0
:10241000DF91CF911F910C94C211893319F06AE0BA
:1024200070E002C060E570E00C94F611882321F0A2
:102430000E946C1A0C94B71A0895882321F00E9408
:10244000721A0C94B71A0895CF92DF92EF92FF920E
:102450000F931F93CF93DF937C01062FC72FFC01AF
:10246000D281158112951F700E94621A882399F0FB
:10247000DD2389F08C2F807F803421F080E2800F73
:10248000883048F082E00E94011B0E94621A91E0AD
:10249000D82ED92601C0D12CCC2EC2948FE0C822D0
:1024A0008C2D90E0FC01E95BFF4F0C94D6208C2F23
:1024B000807FCF70882311F0C295C07FDD2399F013
:1024C000CC2309F482C180E2800F883010F0011122
:1024D00004C08C2F0E946C1A03C08C2F0E947C1A9F
:1024E0000E94B71A72C1802F0E94C211CC2309F436
:1024F00096C180E2800F883010F0011104C08C2F4B
:102500000E94721A03C08C2F0E94821A0E94B71A6E
:1025100086C18C2F807FCF70803211F0C295C07F32
:10252000002319F00130C9F022C0DD2371F011231E
:1025300041F0113031F40E949C1A8C2B0E94A41A95
:102540006EC10E949C1A8C2B1DC0112319F01130F2
:1025500009F465C10E94AD1A1AC0DD2321F01630BE
:1025600008F05DC10EC0153008F059C110C0DD2360
:1025700061F0112331F0F701858180FF26C18F7052
:1025800085838C2F0E9416124AC1111124C18C2FF1
:102590000E941D1244C18C2F86958695837019F078
:1025A000813061F03CC1DD2321F0802F9C2F93709E
:1025B00002C080E090E00E94141039C1DD2321F0B8
:1025C000802F9C2F937002C080E090E00E942A1020
:1025D0002EC1802FDD2319F00E948F0802C00E94B7
:1025E000EA080E94610923C18C2F837009F045C05D
:1025F000D11119C1402F429546954770440F440FA1
:10260000602F6F70862F90E0A0E0B0E0042E04C031
:10261000880F991FAA1FBB1F0A94D2F704FF10C08E
:102620000FE010E020E030E004C0000F111F221F77
:10263000331F4A95D2F7009510952095309503C029
:1026400000E010E09801C695C695C370BC01CD01AD
:10265000602B712B822B932BC23049F058F4C13080
:1026600019F00E94A718DFC00E949518DCC00E94D4
:10267000B918D9C00E949318D6C0DD2319F08C2F49
:10268000817001C08695882309F4CDC0402F429502
:1026900046954770440F440F602F6F70862F90E06F
:1026A000A0E0B0E0042E04C0880F991FAA1FBB1F32
:1026B0000A94D2F704FF10C00FE010E020E030E0F1
:1026C00004C0000F111F221F331F4A95D2F7009537
:1026D00010952095309503C000E010E09801C69554
:1026E000C695C370BC01CD01602B712B822B932B3F
:1026F000C23049F058F4C13019F00E946C1993C0EF
:102700000E945A1990C00E947E198DC00E94CD1857
:102710008AC0CF70DD2339F08C2F0E94F318802FF0
:102720000E94161280C0802F0E941D128C2F0E94C2
:10273000141979C0023F01F128F4003F41F0013F34
:10274000A1F03FC0033FF9F0043F39F13AC0DD2367
:1027500041F0153008F063C08C2F8F710E94391939
:102760005EC0163008F05BC0F7CFDD2339F08C2F48
:102770008F710E94F31853C0DD23C9F38C2F8F7122
:102780000E9414194CC0DD2329F08C2F8F710E94F8
:10279000DE1845C00E94D91842C0DD2349F0CF7130
:1027A0008C2F0E94F31863E08C2F0E94EC1A37C024
:1027B00081E00E94011B123090F182E00E94011B17
:1027C0002EC0DD2331F0112391F2802F0E946C1175
:1027D00026C0112399F2093341F4FFEF27EE83E07D
:1027E000F15020408040E1F704C0EFE3FCE931976D
:1027F000F1F700C00000802F0E94C21110C04C2FC2
:102800004F70602FC7010E9441050E9404180FC03D
:102810004C2F4F70602FC7010E94440508C088EFFD
:102820008C0D843020F40E94EF0F0E943805DD20CB
:10283000C9F00E945E1A80FD15C0F70112820E9445
:10284000581A0E94F318C7010E9453140E94581A84
:10285000DF91CF911F910F91FF90EF90DF90CF907C
:102860000C941419DF91CF911F910F91FF90EF906D
:10287000DF90CF9008950F931F93CF93DF93EC01D8
:10288000688179818A810E94351A8C010E94901991
:102890000E948118B801CE010E942412DF91CF91CD
:1028A0001F910F910895CF93DF93EC019881898157
:1028B0002B813C81232B31F08F3F31F481E09F3F0E
:1028C00019F403C081E001C080E080FD19C0CE0191
:1028D0000E941C0481110CC00E94621A882381F09E
:1028E0008A81882369F082E0DF91CF910C94011BEB
:1028F000CE010E943B14CE01DF91CF910C948F0347
:10290000DF91CF91089580E090E00E94141080E064
:1029100090E00E942A100E94891A0E94991A0E942F
:10292000B71A0E94920A0C94610980910801909153
:1029300009010E94161C0C9483140E94791A0C94AD
:102940009514E92FE295EF704E2F50E0FA0132977F
:10295000EE30F105B0F4E95AFF4F0C94D620803FD9
:1029600091F018F4883E68F40EC0843F51F40BC017
:10297000883E48F0813F29F406C093FB882780F900
:10298000089580E0089581E008950E942A1A0E9427
:10299000A1140895CF93DF9300D000D01F92CDB73C
:1029A000DEB70F900F900F900F900F90DF91CF91A7
:1029B0000895CF93DF9300D000D000D0CDB7DEB71D
:1029C00026960FB6F894DEBF0FBECDBFDF91CF9134
:1029D00008951F93CF93DF93C091BD0116E08091BE
:1029E000BE01C81799F0D0E01C9FF0011D9FF00DAB
:1029F0001124E154FE4F40815181628173818481B1
:102A000095810E94D9142196C770E9CFDF91CF91AB
:102A10001F9108954091EF015091F0016091F101F3
:102A20007091F2018091F3019091F4010C94D9140A
:102A30000F931F93CF93DF938091F40182958F7052
:102A400009F05DC08091F101882309F458C080919C
:102A5000BD011091BE016091EF017091F001C09134
:102A6000F201D091F30191E06F3F09F090E0292F3E
:102A700006E0811709F443C0209721F07F3F21F041
:102A800030E003C031E001C0322F90E030FD34C0AF
:102A9000089FF001099FF00D1124DF01A154BE4FE2
:102AA00011963C911197371327C03C91361324C0DF
:102AB00012963C91129731111FC013964D915C9163
:102AC00014974C1B5D0B483C5105B0F48091F40108
:102AD0008F7080618093F401EC53FE4F80818F7082
:102AE000806180838FEE91E00E945314DF91CF913B
:102AF0001F910F910C94E91401968770BACFDF9162
:102B0000CF911F910F9108959F92AF92BF92CF9254
:102B1000DF92EF92FF920F931F93CF93DF93CDB786
:102B2000DEB761970FB6F894DEBF0FBECDBF8C0144
:102B300085E0F801DE011D9601900D928A95E1F77E
:102B4000F80140815181E2809091EF016091F001A4
:102B50002091F2013091F3012115310531F06F3FE1
:102B600031F481E09F3F19F403C081E001C080E0AF
:102B7000F82FF1709F2E80FD46C1F801A380B4802C
:102B80008FEEC82E81E0D82EF090F101F501E21B06
:102B9000F30BFF2009F4DFC08091F401E83CF1055C
:102BA00008F09BC0282F207F09F052C0561313C095
:102BB000491311C0FE2CE1100EC08F70806180930C
:102BC000F4010E940A15C6010E9453148091F40179
:102BD000F801858358C1AB2831F05F3F31F481E0C3
:102BE0004F3F19F403C081E001C080E080FD03C0C5
:102BF00081E08E2502C080E090E0F82FF170FF2E7A
:102C000080FF1CC08091BD012091BE0136E082177B
:102C100009F417C190E0389FF001399FF00D11249D
:102C2000E154FE4F6181561306C06081461303C014
:102C30006281E61203C001968770E9CFFE2CEE2078
:102C400009F421C18091F40181608093F4015AC09C
:102C5000561306C0491304C0E11002C0F8019FC01A
:102C60004D875E878D859E850E94C514882379F1E6
:102C7000EE2069F12091F401822F82958F7090E00F
:102C8000029774F08091EF019091F00198878F8303
:102C90001986BB86AA862C87CE0107960E945314FC
:102CA00086E0F801AFEEB1E001900D928A95E1F770
:102CB0000E9418150E940A150DC0561729F14D875C
:102CC0005E878D859E850E94C51481112CC0C80128
:102CD0000E945314FF24F394D6C0282F207F69F755
:102CE0007A2DB98AA88A6E2D89890E94CA148FEE1E
:102CF00091E00E94531486E0F60111928A95E9F75B
:102D00000E940A15F12CBFC04913D9CFE110D7CFCB
:102D1000F8018583C8010E94531486E0F6011192E0
:102D20008A95E9F7B0C0EE2091F22091F401822F4C
:102D300082958F7090E002970CF4B2CF8091EF01F2
:102D40009091F0019A8389831B82BD82AC822E838D
:102D5000CE010196A3CFE83CF10508F047C0FE2C58
:102D6000EE2009F4B4CF561330C049132EC0209181
:102D7000F40120FD21C0822F82958F70482F50E0F2
:102D800041155105C9F0F80125834F30510541F037
:102D90008F5F982F9295907F822F8F70892B8583DC
:102DA000C8010E94531486E0F801AFEEB1E0019033
:102DB0000D928A95E1F742C086E0F801AFEEB1E0EE
:102DC00001900D928A95E1F75EC04D875E878D85F3
:102DD0009E850E94C514811163CF8091F4018160AA
:102DE0008093F401C8010E9453144DC07A2DB98A12
:102DF000A88A6E2D89890E94CA1486E0F601119274
:102E00008A95E9F71BC0EE2009F461CF4D875E87F4
:102E10008D859E850E94C514F82E882309F457CF0E
:102E200086E0F801AFEEB1E001900D928A95E1F7EE
:102E30008FEE91E00E9466110E9418150E940A15FB
:102E400022C04D875E878D859E850E942A1A292F74
:102E500022952F70223028F49F7039F0811105C01F
:102E60000BC0243028F49F7049F4805E883020F035
:102E7000C8010E9453149F2CF92C05C0F8019581BC
:102E8000907F99F7F9CF8F2D61960FB6F894DEBF3A
:102E90000FBECDBFDF91CF911F910F91FF90EF90AB
:102EA000DF90CF90BF90AF909F9008951F93CF93E6
:102EB000DF93CDB7DEB72C970FB6F894DEBF0FBE09
:102EC000CDBF4F83588769877A878B879C87CE01D0
:102ED00007960E9484158823D1F09F8188852A85D2
:102EE0003B85232B31F08F3F31F481E09F3F19F474
:102EF00003C081E001C080E080FD47C04F8158855C
:102F000069857A858B859C850E94D9143EC086E0B0
:102F1000FE013796DE01119601900D928A95E1F738
:102F2000FF81E8856A857B856115710531F0EF3F8A
:102F300031F481E0FF3F19F403C081E001C080E07B
:102F400080FD23C02091BE0130E0C9010196877049
:102F500099274091BD0150E084179507F1F1F9835D
:102F6000EA837D836C8396E0929FD001939FB00D9E
:102F70001124A154BE4FFE01319601900D929A95F5
:102F8000E1F78093BE010E94E91416E08091BD0133
:102F90009091BE01891771F1189FC00111248154CD
:102FA0009E4F0E948415882329F1E091BD011E9F48
:102FB000F0011124E154FE4F4081518162817381FF
:102FC000848195810E94D9148091BD0190E0019681
:102FD000877099278093BD01D9CF0E949D141092CC
:102FE000BE011092BD01EFEEF1E086E0DF011D921F
:102FF0008A95E9F72C960FB6F894DEBF0FBECDBFC9
:10300000DF91CF911F910895EF92FF920F931F933D
:10301000CF93DF938C01892B09F46CC0F12CEE2443
:10302000E394E8012196F8018491843740F48430D8
:1030300008F051C0813081F0823019F15BC08537D2
:1030400009F444C0A8F19CE7980F903708F052C0EB
:103050008F770E94C21141C00E5F1F4FFE01849105
:1030600090E2980F983050F48770FE2D01C0FF0F4A
:103070008A95EAF78F2F0E948C1A14C00E946C1157
:103080002DC00E5F1F4FFE01849190E2980F983083
:1030900060F48770FE2D01C0FF0F8A95EAF78F2F2D
:1030A0000E94921A0E94B71A19C00E94C21116C03B
:1030B0000E5F1F4FFE01C491CC2381F08FE99FE08A
:1030C0000197F1F700C00000C150F6CF0E5F1F4F0F
:1030D000FE01F49003C00E946C118E018F2D882395
:1030E00009F49FCFEFE9FFE03197F1F700C000004E
:1030F0008150F5CFDF91CF911F910F91FF90EF900D
:103100000895089508950C9482180C9483180E94D1
:1031100085186093FE017093FF01809300029093E5
:1031200001020C9483140C9487180F931F93009141
:10313000FE011091FF012091000230910102602BED
:10314000712B822B932B1F910F910C9487180F9347
:103150001F930091FE011091FF0120910002309118
:10316000010260237123822393231F910F910C94FA
:1031700087180F931F930091FE011091FF0120917A
:1031800000023091010260277127822793271F9147
:103190000F910C9487180C9482180E94CB1860939E
:1031A000FA017093FB018093FC019093FD010C9454
:1031B000831460E070E0CB010C94CD180F931F9343
:1031C00041E050E060E070E08A019B0104C0000F24
:1031D000111F221F331F8A95D2F7C901B8011F9111
:1031E0000F910C94CD180F931F9341E050E060E0D5
:1031F00070E004C0440F551F661F771F8A95D2F7F1
:103200008091FA019091FB01A091FC01B091FD0128
:103210008A019B01082B192B2A2B3B2BC901B801D2
:103220001F910F910C94CD180F931F9341E050E024
:1032300060E070E004C0440F551F661F771F8A9539
:10324000D2F740955095609570958091FA019091D4
:10325000FB01A091FC01B091FD018A019B010823B3
:1032600019232A233B23C901B8011F910F910C9404
:10327000CD180F931F9341E050E060E070E004C070
:10328000440F551F661F771F8A95D2F78091FA0168
:103290009091FB01A091FC01B091FD018A019B017D
:1032A000082719272A273B27C901B8011F910F9129
:1032B0000C94CD180F931F930091FA011091FB010C
:1032C0002091FC013091FD01602B712B822B932BFF
:1032D0001F910F910C94CD180F931F930091FA0139
:1032E0001091FB012091FC013091FD0160237123BD
:1032F000822393231F910F910C94CD180F931F934A
:103300000091FA011091FB012091FC013091FD0127
:1033100060277127822793271F910F910C94CD1856
:103320000895292F220F920F890FE82FE695E69531
:10333000E695877051E001C0550F8A95EAF785E060
:10334000E89FF0011124EB50FE4F20E030E070E0E8
:103350004081CB01022E02C0969587950A94E2F730
:103360008170819584278523842781932F5F3F4F28
:103370002530310569F70895292F220F920F890F03
:10338000682F669566956695982F977085E0689F7B
:10339000B001112440E050E080E0FB01E40FF51F94
:1033A000EB50FE4F208130E0092E02C03695279564
:1033B0000A94E2F721703327042E01C0220F0A94E9
:1033C000EAF7822B4F5F5F4F4530510531F7089583
:1033D000BF92CF92DF92EF92FF920F931F93CF9302
:1033E000DF938C01C090FA01D090FB01E090FC01CA
:1033F000F090FD018091FE019091FF01A0910002EB
:10340000B0910102C82AD92AEA2AFB2ACFE1D0E0EA
:10341000D701C6010C2E04C0B695A7959795879540
:103420000A94D2F780FD04C0219790F7B12C07C011
:10343000BC2EB8018C2F0E944D050197A9F38B2D4E
:10344000DF91CF911F910F91FF90EF90DF90CF9080
:10345000BF900895CF93DF93EC010E94E819BE015D
:103460000E944D05DF91CF9108951F93CF93DF9375
:10347000EB019091BC01992321F0CB010E942A1A03
:1034800013C0882349F0CB010E94E819182F682F38
:10349000CE010E94911904C0CB010E94BC19182FC3
:1034A000BE01812F0E944D05DF91CF911F9108959C
:1034B00080910202859585958595089580910202F7
:1034C0008770089590910202977081E009F480E07E
:1034D000089580910E02089590910E02892B809399
:1034E0000E020895809590910E02892380930E021A
:1034F000089510920E02089590910D02892B8093E9
:103500000D020895809590910D02892380930D02FC
:10351000089510920D02089590910C02892B8093CA
:103520000C020895809590910C02892380930C02DF
:10353000089510920C020895809103020895089551
:103540000C949F1A0C94A01A90910302981721F0E2
:10355000809303020C94A21A089580910302882399
:1035600029F01092030280E00C94A21A0895E091D1
:103570000801F091090180910E028083E091080119
:10358000F0910901908180910D02892B8083E09157
:103590000801F0910901908180910C02892B8083B0
:1035A00080910302882381F0E0910801F0910901E4
:1035B0009081892B808380910801909109010E945C
:1035C000D01B81110E94AD1A8091080190910901D0
:1035D0000C94FB0F0C949F1A98E0899F9001112482
:1035E000262B209302020E94F318809102028595F7
:1035F000859585950C94EA1A1092020280E00C944D
:10360000EA1A209102028095822380930202982F69
:10361000977079F430E0482F082E000C550B2417D2
:10362000350739F08595859585950E9414190C9478
:10363000FC1A089580E008956FEF7FEF80E090E03E
:103640000C94232180E090E00E94FF2021E08B3E3B
:103650009E4F09F020E0822F089582E090E00C94C4
:10366000F72083E090E00C94F720CF9384E090E083
:103670000E94F720C82F81E290E00E94F7202C2FB3
:1036800030E0A901582BCA01CF910895CF93C92FDB
:10369000682F84E090E00E9405216C2F81E290E089
:1036A000CF910C940521AB01BC018FE090E00C940C
:1036B0001721AB01BC0183E190E00C94172160E07D
:1036C00070E0CB010C94591B60E070E0CB010E94CC
:1036D000531B0C945F1B6BEE7EEF80E090E00E942A
:1036E000232160E082E090E00E94052160E083E019
:1036F00090E00E9405211092FE011092FF011092AD
:1037000000021092010260E084E090E00E94052136
:1037100060E081E290E00E94052160E085E090E0B9
:103720000E94052160E086E090E00E9405216FEF95
:1037300087E090E00E94052140E050E0BA0188E077
:1037400090E00E94172160E08DE090E00E9405214A
:1037500040E050E0BA0188E190E00E94172160E06B
:1037600087E190E00E94052140E050E0BA018CE141
:1037700090E00E94172160E080E290E00E94052125
:1037800040E050E0BA0188E190E00E9417210C94DB
:10379000641B0C946B1B682F8EE090E00C94052149
:1037A000FC01329697E080E0915029F0219122238C
:1037B000D9F38F5FF9CF0895662349F0FC01329663
:1037C00008962191621729F0E817F907D1F780E0F0
:1037D000089581E008959C01FC0132969FEF80E0FE
:1037E0004191461789F09F3F19F4411101C0982F6C
:1037F0008F5F8630A9F79F3F39F0F901E90FF11D7E
:1038000097FDFA956283089508959C012A5F3F4FC2
:10381000FC014281461301C0128201968217930770
:10382000B9F708950C94EB1B0C94051C029626E046
:10383000FC0111922A95E9F7089508950C941D1C36
:103840000C941D1C0E94201C0E9486070E941E1CB6
:1038500080E00E943C07811108C081E00E943C0783
:1038600091E0811103C090E001C091E0892F08959B
:103870000C941D1C0C94381C80911102882349F172
:103880000E943A1C80E00E9438051092100220E449
:1038900088E190E00FB6F894A895809360000FBE81
:1038A0002093600083B7817F846083BF83B781608A
:1038B00083BF7894889583B78E7F83BF0FB6F894C3
:1038C000A8958091600088618093600010926000EC
:1038D0000FBE08950C941D1C0E949D140E94EF0FB2
:1038E0000E9438050C946A1C1F920F920FB60F921B
:1038F00011248F939F93AF93BF93809110028111F6
:1039000013C08091C9029091CA02A091CB02B091DC
:10391000CC024196A11DB11D8093C9029093CA02A9
:10392000A093CB02B093CC02BF91AF919F918F91A6
:103930000F900FBE0F901F90189582E084BD93E00A
:1039400095BD9AEF97BD80936E0008952FB7F894B8
:103950008091C9029091CA02A091CB02B091CC0291
:103960002FBF08952FB7F8946091C9027091CA02D1
:103970008091CB029091CC022FBF08959C014FB74C
:10398000F8948091C9029091CA02A091CB02B091A3
:10399000CC024FBF821B930B089578941F920F9215
:1039A0000FB60F9211248F939F93AF93BF93809183
:1039B000C9029091CA02A091CB02B091CC020196AB
:1039C000A11DB11D8093C9029093CA02A093CB029E
:1039D000B093CC02BF91AF919F918F910F900FBE8A
:1039E0000F901F90189598E088E10FB6F894A8956D
:1039F000809360000FBE90936000A895F894D8E083
:103A0000CEEF28E3299320E0299314BEFFCF089539
:103A100090938F0180938E0108950C943F0B0E9428
:103A200086072FEF89EF90E0215080409040E1F72A
:103A300000C000000E94860780E00E943C0780FFD3
:103A400004C00E940D1D0C94F31C08950E94221BBB
:103A5000811102C00E94C91B0E942D1B80930F027E
:103A60000E94351B9093CE028093CD020E94311BA1
:103A7000682F70E080E090E00E9493186091FA0156
:103A80007091FB018091FC019091FD010C94CB1889
:103A90000F931F93CF93DF930E94A61CEC0190E03D
:103AA00080E80FB6F89480936100909361000FBE98
:103AB0000E9477100E94A720539A80E0815041F025
:103AC000A895EFE9FFE03197F1F700C00000F6CFCD
:103AD000539878940E947F100E94A91E0E94EA0FBA
:103AE000FFEF20E732E0F15020403040E1F700C026
:103AF000000001E01CE08091F602882371F0109232
:103B0000F6020E94A61CEC0180911102882391F01C
:103B1000109211020E946C1C0DC080911102811143
:103B200009C0CE010E94BE1C069720F0009311022E
:103B30000E943C1C809111028823F9F00E943C1CD9
:103B40000E94221C8823B9F2F8949AB15B9A892FBB
:103B50008C608AB98BB181278BB98FE7E8E3F1E0FC
:103B60008150E040F040E1F700C000008BB18127B8
:103B70008BB99AB95B987894BECF0E94B01F8091A0
:103B8000FC02882329F08091DA0284FD0E948B10C8
:103B90000E94161E0E94B01F8091FC02882329F00B
:103BA0008091130384FD0E949D1E0E946B100E9451
:103BB0006A10A1CF8091C4020895CF93DF9300D003
:103BC0001F92CDB7DEB790911402981307C02091D1
:103BD0001202309113022617370791F080931402D6
:103BE000709313026093120289837B836A838091AE
:103BF000130384FF05C063E0CE0101960E94A81F55
:103C00000F900F900F90DF91CF910895BC0184E049
:103C10000C94DD1DBC0183E00C94DD1D2091130389
:103C200024FF03C066E00C94A81F0895CF93DF9390
:103C3000CAE0D0E08091DA0284FF18C0809141028E
:103C4000909142029817E1F028E0829FC001112470
:103C500068E08D5B9D4F0E94A41F8091410290E01F
:103C600001968F709927809341020AC00E94B01F6D
:103C70008FE99FE00197F1F700C000002197D1F68E
:103C8000DF91CF910895CF93DF93EC01A091420291
:103C9000B0E0CD0101968F7099272091410228173D
:103CA00079F093E0AA0FBB1F9A95E1F7AD5BBD4F8A
:103CB00098E0FE0101900D929A95E1F780934202FF
:103CC0000E94B01F0E94161E88E0FE01A9E3B2E028
:103CD00001900D928A95E1F7DF91CF9108950F93AE
:103CE0001F93CF93DF93EC01603211F58C01005EDE
:103CF0001F4F8091E60284FD03C00E94B01FF9CFE0
:103D000068E0CE010E94AC1F28960C171D0789F7AA
:103D10008091E60284FD03C00E94B01FF9CF60E0ED
:103D200080E090E0DF91CF911F910F910C94AC1F38
:103D3000DF91CF911F910F910895809118028032E9
:103D400039F460E289E192E00E94A10B109218021E
:103D500008958AE091E00895FC01808180768032A8
:103D6000A1F58181813061F484819581892B69F588
:103D700089E392E09093F8028093F70288E0089537
:103D8000823041F483EC92E09093F8028093F70242
:103D900081E008958A3021F483818093C30215C0A5
:103DA000893099F4828193818115924081F48481D4
:103DB0009581892B61F481E0809317028681978138
:103DC000909316028093150202C080E008958FEF51
:103DD00008952091150230911602232B71F0209145
:103DE0001702213051F4FC0180818093C4021092AB
:103DF00016021092150281E008958FEF0895683041
:103E000019F010921802089520911802A22FB0E024
:103E1000A931B105B4F7FC01A75EBD4F08963191F9
:103E20003D93E817F907D9F7285F20931802089502
:103E3000FC0193819330B1F068F4913081F09230BD
:103E400009F05EC08AEA91E09093F8028093F7024D
:103E50008BE50895913201F1923291F151C085E0E4
:103E600092E014C08281813079F030F0823009F024
:103E700047C087E192E00AC08FE392E09093F80296
:103E80008093F70284E008958BE292E09093F80229
:103E90008093F70282E108958281813049F028F011
:103EA000823071F585EF91E005C08CEB91E002C0A6
:103EB00085ED91E09093F8028093F70289E00895F0
:103EC000848195818130910599F050F00297C1F479
:103ED00085E692E09093F8028093F7028BE70895CD
:103EE00080EE92E09093F8028093F70280E40895C8
:103EF00083E492E09093F8028093F70282E20895BF
:103F000080E008951F93CF93DF93162FEA01288155
:103F100024FF05C0398128E82327298302C02AE528
:103F20002883212FFC01CE010296DC0131913D93C3
:103F300021501216DCF3612F0E94EE011C5F1883E2
:103F4000DF91CF911F9108954AED52E00C94821FAA
:103F500043E153E00C94821F46EE52E00C94821F22
:103F6000CF93DF936091F902635067FD93C0809116
:103F7000F502CCE0D0E0C81BD109C350DD4F8091E1
:103F8000F402803120F4CE010E94FF1E81C08D32E8
:103F900009F06EC0683009F07BC083EC8093CF02DB
:103FA0008AE5809315011092F3028881807621F0D2
:103FB000CE010E94AC1E49C09A811092D80289811C
:103FC000811106C01092D90228ED32E082E038C09B
:103FD000853019F49093FA0230C08630A1F48B81B9
:103FE000813041F0823031F0833021F0813211F0A4
:103FF000823221F4CE010E94181F01C080E090E4BB
:104000009093F30222C0883089F0893019F490939C
:10401000FC0213C08A3069F08B3079F48BE4809312
:10402000DB02809314038093E70207C02CEF32E099
:1040300002C028ED32E081E003C028ED32E080E0EC
:104040003093F8022093F70209C08F3F39F498812A
:1040500097FD8E8190E89093F30207C09F819111A4
:1040600004C09E81981708F4892F8093140110C012
:104070008091F30287FF0CC0CE010E94E91E8F3FA2
:1040800021F48EE18093150103C081111092140177
:104090001092F9028091150184FF4CC080911401A7
:1040A0008F3F09F447C0C82F893008F0C8E08C1B47
:1040B000809314019091CF0288E889278093CF02E2
:1040C000CC2359F18091F7029091F8022091F302EC
:1040D00026FF12C0AFECB2E02C2FAC014F5C524077
:1040E000FA01EA0FFB1FE4911196EC93119721500E
:1040F00011962111F5CF08C0E0EDF2E0DC012C2F84
:104100003D9131932150E1F701962FEF2C0F820F53
:10411000911D9093F8028093F7026C2F80ED92E04E
:104120000E94EE01CC5FCC3019F08FEF8093140128
:10413000C093150184E199B19C7031F48150D9F795
:104140001092FA021092F202DF91CF910895CF936C
:10415000DF93E9E6F0E0808188608083E99ACAED28
:10416000D2E08BE48983A3E1B3E011968C9311979D
:10417000E6EEF2E081838AE588838C938083DF9189
:10418000CF91089597FB072E16F4009407D077FD82
:1041900009D00E94E32007FC05D03EF4909581955C
:1041A0009F4F0895709561957F4F0895EE0FFF1F03
:1041B0000590F491E02D09946927962769277827BF
:1041C000872778270895AA1BBB1B51E107C0AA1FA8
:1041D000BB1FA617B70710F0A61BB70B881F991FA8
:1041E0005A95A9F780959095BC01CD010895F9994C
:1041F000FECF92BD81BDF89A992780B50895A8E1B8
:10420000B0E042E050E00C942B21262FF999FECF2C
:1042100092BD81BDF89A019700B4021639F01FBA19
:1042200020BD0FB6F894FA9AF99A0FBE0895039636
:10423000272F0E9406210E940521252F0E9406217A
:10424000242F0C9406210196272F0E9406210C94FE
:104250000521DC01CB01FC01F999FECF06C0F2BDBE
:10426000E1BDF89A319600B40D9241505040B8F734
:064270000895F894FFCF51
:104276002808641E140A321E0402DA1D431E0E1E8E
:104286000A1E061EFF5AE200E900EA00B500B60063
:10429600B700CD008301CC008A019201940121026E
:1042A600230224022502260227022A02B300B400B2
:1042B6006F00700081828394953163626100FF0113
:1042C60000010000FFFF0000010001FF00E200E91D
:1042D60000EA00B500B600B700CD008301CC008A25
:1042E60001920194012102230224022502260227BB
:0E42F600022A02B300B4006F007000818283C0
:00000001FF
